:020000040800F2
:10000000A806002001010008D12F0008A125000842
:10001000CD2F0008D9080008C936000800000000EC
:10002000000000000000000000000000BD360008D5
:100030008D0C000800000000B9360008C136000829
:100040001B0100081B0100081B0100081B01000820
:100050001B0100081B0100081B0100081B01000810
:100060001B0100081B0100081B0100081B01000800
:100070001B0100081B0100081B0100081B010008F0
:100080001B0100081B0100081B0100081B010008E0
:100090001B0100081B0100081B0100081B010008D0
:1000A0001B0100081B0100081B0100081B010008C0
:1000B0001B0100081B0100081B0100081B010008B0
:1000C0001B0100081B0100081B0100081B010008A0
:1000D0001B0100081B0100081B0100081B01000890
:1000E0001B0100081B0100081B010008DFF80CD0F1
:1000F00000F0AEFB00480047C53E0008A8060020FF
:100100000648804706480047FEE7FEE7FEE7FEE7B1
:10011000FEE7FEE7FEE7FEE7FEE7FEE7C53600087E
:10012000ED0000082DE9F0410024061B254671F181
:10013000000605DA01240027D0EB070067EB010178
:10014000161E73F1000605DA0027D2EB070201251F
:1001500067EB030300F071F986460E4617469C468E
:10016000AC4204D00025D0EB050E65EB010624B1AE
:100170000020D2EB000760EB030C704631463A4694
:100180006346BDE8F08180EA010210B502F0004349
:10019000400022D04A001FD0010E01EB1261C0F3D3
:1001A0005600C2F3560240F4000042F40002A0FBE5
:1001B000022000047F39140400D0401C50EA124091
:1001C00001D44000491EC2B20C0604EBD010401C02
:1001D0004008802A02D003E0002010BD20F001007A
:1001E000002900DA0020184310BD30B480EA010273
:1001F00002F0004530F0004221F0004013D090B1F1
:10020000C30DD40DC2F31601C0F31600E41A41F475
:10021000000140F400027D34914201D3641C00E0EF
:100220004900002C02DA30BC002070474FF4000077
:100230000023914201D3891A034340084FEA410148
:10024000F7D151B1914202D14FF0004105E002D205
:100250004FF0010101E06FF0010103EBC4502844AD
:1002600030BC00F01BB92DE9FE4F81EA030404F015
:10027000004421F0004100944FF0000B23F00043B4
:1002800050EA01045ED052EA03045BD0C3F30A547F
:10029000C1F30A552C44A4F2F3340194A0FB025498
:1002A000C1F3130141F48011C3F3130343F480132A
:1002B00001FB024400FB034E840A970A44EA81547E
:1002C00047EA8357A4FB076802958D0A05FB07855B
:1002D0004FEA932C04FB0C542705029D4FEA065865
:1002E00047EA1637B5EB08056EEB070C870E920E42
:1002F00047EA811742EA8312A7FB0201B6EB0B0122
:1003000064EB00042B0D43EA0C335E1844EB1C50E5
:10031000DA465146E7FB0201C5F313044FEA0B33FB
:1003200043EA14534FEA0432019C43EA0603A4F162
:100330000C040294009CCDE900B400F0F5F803B081
:10034000BDE8F08F00200146F9E7C10F80EAE070B8
:100350000844CA079623002100F0A9B8962300227A
:10036000114600F0A4B80EB5C10F80EAE070084451
:10037000CA07002140F233438DE80E000A460B46BF
:1003800000F0D2F803B000BD20F00040C10DC0F372
:10039000160040F400007F2901DA002070479629FA
:1003A00003DCC1F19601C840704796398840704718
:1003B00000F0004230F000400AD0C10D01F560713C
:1003C000C0F3160042EA0151C208400711437047CA
:1003D00000200146704701F0004330B421F0004195
:1003E00050EA010206D00A0DA2F56072C1F31301B2
:1003F000002A02DC30BC00207047440F44EAC104EC
:10040000C100E01830BC00EBC25000F047B830B576
:100410000B46014600202022012409E021FA02F5C2
:100420009D4205D303FA02F5491B04FA02F528445C
:10043000151EA2F10102F1DC30BD2DE9F05F054689
:10044000002092469B4688460646814640241BE093
:10045000284641464746224600F01BFA53465A4674
:10046000C01A914110D311461846224600F002FAF4
:100470002D1A67EB01084F4622460120002100F0AB
:10048000F9F917EB00094E41201EA4F10104DFDC4D
:10049000484631462A464346BDE8F09F0029A8BF9A
:1004A0007047401C490008BF20F00100704710B49D
:1004B000B0FA80FC00FA0CF050EA010404BF10BC52
:1004C000704749B1CCF1200421FA04F411FA0CF17F
:1004D00018BF012121430843A3EB0C01CB1D4FEAB8
:1004E00000614FEA102042BF002010BC704700EBB3
:1004F000C35010440029A4BF10BC7047401C4900E1
:1005000008BF20F0010010BC704710B5141E73F135
:10051000000408DA401C41F1000192185B411A43C3
:1005200001D120F0010010BD2DE9F04D92469B460F
:1005300011B1B1FA81F202E0B0FA80F220329046B5
:1005400000F098F904460F4640EA0A0041EA0B0120
:1005500053465A46084313D0114653EA010019D0B6
:10056000C8F14002504600F094F905460E46504648
:100570005946424600F07EF9084305D0012004E0C8
:1005800020463946BDE8F08D0020054346EAE07676
:100590002C4337430A986305E40AA0EB08000022C5
:1005A000FD0A44EA47540A3002D500200146E9E733
:1005B000010510196941DDE9084500196941BDE8E7
:1005C000F04DA2E72DE9FE4F804681EA0300C00FFF
:1005D0000C46009021F0004123F00045B8EB0200EA
:1005E000A94105D24046214690461C460B4602468C
:1005F00023F00040104347D0270DC7F30A00C3F390
:100600000A510290401A019040286BDAC3F313009C
:1006100040F4801B0098924620B10023D2EB030ADD
:1006200063EB0B0B01985946C0F14002504600F0B5
:1006300021F906460D4650465946019A00F039F90F
:1006400010EB08006141002487EA115284EAE77345
:100650001A4340D0009A62B3019A012A4FEA075226
:1006600015DC001B61EB02014FF0004202EA075269
:10067000CDE90042001C41F5801132462B46FFF7C0
:1006800053FF03B0BDE8F08F40462146F9E7001B59
:1006900061EB0201001C41F5801300185B4120183A
:1006A000A2F5001747EB030140EAD570B6196D417A
:1006B00011E06D084FEA360645EAC0754FEA075269
:1006C000001B61EB0201001C41F5801149084FEA53
:1006D00030000019514132462B4603B0BDE8F04FBF
:1006E000FFF713BF0098012240000023D0EB020265
:1006F00063EBE073009821464FEAE074B8EB00002A
:1007000061EB0401E9E783F000435BE781F000411E
:1007100058E72DE9F04D81EA030404F0004B21F085
:10072000004514464FF0000A23F0004150EA05024C
:1007300020D054EA01021DD0C5F30A570246C5F382
:100740001303C1F31300C1F30A5640F4801543F4B8
:100750008013A7EB0608101BD64608F2FD3873EB92
:10076000050002D308F1010801E092185B41B8F1DD
:10077000000F03DA00200146BDE8F08D00204FF4A1
:100780008011064684460EE0171B73EB050705D360
:10079000121B63EB050306434CEA010C49084FEAC0
:1007A000300092185B4150EA0107EDD152EA030094
:1007B00012D082EA040083EA0501084305D0101B29
:1007C000AB4106D20122002306E000224FF0004395
:1007D00002E06FF0010253101AEB06004CEB0851D7
:1007E00010EB0A0041EB0B01BDE8F04DFFF78DBEA9
:1007F000C1F30A52C1F3130140F2FF3341F48011F7
:100800009A4202DA00200146704740F233439A428E
:10081000A2F2334202DC524200F03BB800F02AB8A8
:1008200030B5041E71F1000404DB4FF00044404277
:1008300064EB0101141E73F1000405DB1C464FF04C
:100840000043524263EB0403994208BF904230BD1B
:10085000064C074D06E0E06840F0010394E807000D
:1008600098471034AC42F6D3FFF744FCD877000821
:10087000F8770008202A04DB203A00FA02F1002071
:1008800070479140C2F1200320FA03F319439040CE
:100890007047202A04DB203A21FA02F00021704739
:1008A00021FA02F3D040C2F12002914008431946D8
:1008B0007047202A06DBCB17203A41FA02F043EAC0
:1008C000E07306E041FA02F3D040C2F12002914009
:1008D0000843194670470000FEE70000B0B584B039
:1008E00040F6004401200021C4F201040090CDE94B
:1008F0000110032003906946204600F011FA2046BB
:10090000012100F017FB98B1002000BF054601202F
:1009100000F0D8F92046012100F00CFB18B1C72DDA
:1009200005F10100F2D3C62D02D9012004B0B0BDFB
:100930002046012100F0FEFA10B1002004B0B0BD45
:10094000002000BF0546012000F0BCF9204601212F
:1009500000F0F0FA18B9EF2D05F10100F2D30020F4
:10096000EE2D88BF012004B0B0BD000070B584B08A
:1009700040F60044C4F201040125032669462046DE
:10098000CDE900550295039600F0CAF920460121F1
:10099000002200F0D5FA40F2EE2000F093F9204654
:1009A0000121012200F0CCFA0F2000F08BF9FFF7B3
:1009B00095FFCC2000F08EF8442000F08BF86946BB
:1009C0002046CDE90055CDE9025600F0A9F92046B0
:1009D0000121002200F0B4FA40F2EE2000F072F99A
:1009E00020460121012200F0ABFA0F2000F06AF945
:1009F000FFF774FFCC2000F06DF8BE2000F06AF81D
:100A000000F020F8044600F01DF844EA002100F050
:100A1000F80000244A42F82808BF91B2C3F6B07427
:100A2000084604BF0024CBF6B074FFF79CFC0246D6
:100A30000B4600202146FFF716FCFFF7CCFC04B064
:100A400070BD00002DE9F04F85B040F6004BC4F2B8
:100A5000010B01254FF000094FF0030A0DF10408C6
:100A60000026012458464146CDE90155CDE9035AF7
:100A700000F056F958460121002200F061FA0220E8
:100A800000F020F958460121012200F059FA584699
:100A90004146CDE90159CDE9035A00F041F90C2056
:100AA00000F010F95846012100F044FA07460028EA
:100AB0004FF0320018BF012700F004F9F8013106A9
:100AC00040EA5166082C04F10104CBD3304605B04E
:100AD000BDE8F08F2DE9F04385B007464FFA80F866
:100AE000012040F60044CDE9010003900320C4F248
:100AF0000104049001A9204600F012F920460121CA
:100B0000002207F0010500F01BFA02204FF0020955
:100B1000002D08BF3C2000F0D5F82046012101221D
:100B200000F00EFA3C203C26002D08BF022000F009
:100B3000C9F820460121002207F0020500F000FA62
:100B40000220002D08BF3C2000F0BCF82046012107
:100B5000012200F0F5F93C20002D08BF022000F032
:100B6000B1F820460121002207F0040500F0E8F961
:100B70000220002D08BF3C2000F0A4F820460121EF
:100B8000012200F0DDF93C20002D08BF022000F01A
:100B900099F820460121002207F0080500F0D0F95D
:100BA0000220002D08BF3C2000F08CF820460121D7
:100BB000012200F0C5F93C20002D08BF022000F002
:100BC00081F820460121002207F0100500F0B8F955
:100BD0000220002D08BF3C2000F074F820460121BF
:100BE000012200F0ADF93C20002D08BF022000F0EA
:100BF00069F820460121002207F0200500F0A0F945
:100C00000220002D08BF3C2000F05CF820460121A6
:100C1000012200F095F93C20002D08BF022000F0D1
:100C200051F820460121002207F0400500F088F924
:100C30000220002D08BF3C2000F044F8204601218E
:100C4000012200F07DF93C20002D08BF022000F0B9
:100C500039F820460121002200F072F9B8F1FF3F77
:100C6000C8BF4FF03C09484600F02CF8204601214F
:100C7000012200F065F9B8F1FF3FC8BF02263046F7
:100C800000F020F805B0BDE8F083000070470000D8
:100C9000EFF3108072B600BFFEE70000B0B5044667
:100CA00000F054F9054640F20000C2F2000000785E
:100CB000611C18BF044400BF00F048F9401BA0426B
:100CC000FAD3B0BDB0B540F214246FF00501C2F202
:100CD0000004081A216885B220464D6201F0C4F96B
:100CE0004FF6F970854213D820684FF6FA7100BFAD
:100CF000426A92B28A420BD2426A92B28A4207D2C6
:100D0000426A92B28A4203D2426A92B28A42EFD3D4
:100D100040F21420C2F20000BDE8B04001F0D8B9A2
:100D20002DE9F04F82B041F20042C4F201020E6898
:100D30000423904208BF0323002E009300F0F680A6
:100D400040F20C4E4FF6FF7CC4F2010E002201244B
:100D5000C1F2100C4FF0000A4FF0000943E000BF51
:100D6000012502F00C040F27A7402BEA070705FA1C
:100D700004F43C4343F82640D1F804B040F2004567
:100D8000C4F201055FEACB332B6854BF23EA0803A2
:100D900043EA08032B606B685FEA8B3454BF23EA95
:100DA000080343EA08036B605FEACB24AB6854BFD7
:100DB00023EA080343EA08035FEA8B24AB60DEF80A
:100DC00000304FF0010454BF23EA080343EA08034C
:100DD000CEF800300E680AF1010A36FA0AF302F181
:100DE000040200F0A38004FA0AF816EA080FF1D012
:100DF0004B68634512DC122B56D8DFE803F0350B45
:100E00004549555555555555555555555555554DB6
:100E1000510000BFD1F80C9046E000BF4FF6FF77BD
:100E2000C1F22107BB420FDC0027C1F21107BB4210
:100E30001AD00027C1F21207BB4215D00027C1F219
:100E40002107BB4210D02FE00027C1F22207BB428E
:100E50000AD00027C1F23107BB4205D00027C1F2FA
:100E60003207BB4220D100BF8B684BB1012B14BFAE
:100E7000C0F81480C0F810804FF0080914E000BFDB
:100E80004FF0040910E000BFCB6803F108090BE044
:100E90004FF0000908E000BFCB6803F1040903E04C
:100EA000CB6803F10C0900BF13460546BAF1080FE1
:100EB00024BF203B04352E680F279F40BE4309FA0C
:100EC00003F333432B60CB79DB067FF583AF41F22D
:100ED0001804C4F2020423684FEA9A0643F001039F
:100EE0002360236840F6000403F001030193019B93
:100EF00040F20043C4F20103A3F57E7353F826B019
:100F0000C4F20104A0420FD040F60044C4F2010430
:100F1000A0423FF425AF41F20004C4F20104009D59
:100F2000A04208BF02251CE700251AE702B0BDE871
:100F3000F08F00008068084018BF01207047000053
:100F4000002A08BF090401617047000040F2A02098
:100F5000C2F200000068704770B5B8B3044690F85C
:100F60003D0028B9002084F83C00204600F0BAFB80
:100F7000242084F83D002068016821F0010101600F
:100F8000016841F400410160016821F40041016001
:100F900000F084FD48F28041C0F21E0140F60013CB
:100FA000D4F804E088424FF00001C0F23D0348F25B
:100FB000A16C4FF0000238BF01219842C0F2010C31
:100FC00038BF0122E64538BF0A460AB1012070BD8C
:100FD0004DF68361C4F21B31A0FB01122168950C10
:100FE0004B684FF4967623F03F0343EA92437543F0
:100FF00044F6D3564B60C1F262060B6AA5FB065657
:10100000B50923F03F03E64538BF950C6A1C1A4327
:101010000A62CA6948F2A0664CF6FF73C0F2010684
:10102000B64522EA03020BD801384FEA4E03B0FB63
:10103000F3F001306FF31F30042898BF04201EE046
:10104000A368013863B119230EFB03F3B0FBF3F07F
:1010500001306FF31F3078B100F5804008E000BF29
:101060000EEB4E03B0FBF3F001306FF31F3028B1ED
:1010700000F5004003E000BF012000E00120104324
:10108000C8610868D4E9072320F0C0001043184362
:101090000860886848F2FF3204F10C0690434CCE99
:1010A00018431043A5698860C86820F0FF003043EA
:1010B0002843C860086840F0010008600020202133
:1010C000206484F83D10206384F83E0070BD000069
:1010D0002DE9F04F85B0044600201E4617460D4608
:1010E0000490FFF733FF94F83D10202923D1804668
:1010F00020688169890719D5FFF728FFA0EB080050
:101100001928F5D900202021206384F83D1084F8A7
:101110003E00206C04F13C0940F0200020640220D5
:10112000002189F8001005B0BDE8F08FA14619F83C
:101130003C1F012904D1022005B0BDE8F08F00BF9B
:10114000012289F800200368DDE90F1A0E9ADB07F7
:1011500003D1036843F001030360036823F40063D1
:101160000360222084F83D00402084F83E000020E7
:10117000206462626185608D294620850020CFF65B
:10118000FF70E06220463A463346CDF800A0CDF825
:10119000048001F007FA18B1012005B0BDE8F08F16
:1011A000208D022810D0012824D0002838D100201A
:1011B0000390206841690391816903910399016853
:1011C00041F40071016037E02068016841F400617A
:1011D0000160EFF3108072B600200390206841692F
:1011E0000391816903910399016821F48061016091
:1011F00062B621E02068016821F480610160EFF3AC
:10120000108072B6002003902068416903918169C3
:1012100003910399016841F40071016062B60BE02B
:101220002068016841F480610160002103914169F7
:101230000391806903900398208D002800F023819A
:1012400040F2240B4BF289570AF10105C2F2000B60
:10125000C1F2F847232680B2032819D8022845D0C6
:1012600001286FD1BAF1000F00F0FA802068014622
:1012700051F8142F520600F1F7800868C00600F1FB
:101280002F81FFF763FEA0EB08005045EED91CE16B
:10129000BAF1000F12D000BF2068014651F8142F98
:1012A000520610D40868C00600F11A81FFF74EFEFE
:1012B000A0EB08005045EFD907E100BF2068416965
:1012C000490640F1FB800069616A0870606A226823
:1012D000411C208D616201382085638D013B63854F
:1012E00053695B0740F1CC801069BFE02068416919
:1012F000490711D4002D00F09380BAF1000F00F0DF
:10130000E280FFF723FEA0EB0800504500F2DD80ED
:10131000206840694007F4D5EFF3108072B620686A
:10132000616A026842F40072026000690870606AD3
:10133000218D01306062481E2085608D01386085F6
:1013400062B668E020684169490710D4002D77D063
:10135000BAF1000F00F0B780FFF7F8FDA0EB08002E
:10136000504500F2B280206841694907F4D5016810
:1013700021F480610160EFF3108072B62068616A29
:1013800000690870606A218D013001396062218531
:10139000618D01396185DBF80010C908A1FB0712D6
:1013A000110A7143049104990139049104990029A7
:1013B00076D021684A6952071DD4049901390491F5
:1013C000049900296CD021684A69520713D4049902
:1013D000013904910499002962D021684A695207B1
:1013E00009D40499013904910499002958D021683D
:1013F0004A695207D7D50A6842F400720A6009693F
:101400000170606A218D01306062481E2085608D08
:101410000138608562B62068616A006926E000BF15
:10142000416949073FF578AF416949075CBF4169A8
:101430005FEA41713FF570AF41694907F0D56BE74D
:101440004169490793D4416949075CBF41695FEA33
:1014500041713FF58CAF41694907F1D587E700BF7E
:1014600020684169490629D50069616A0870606A87
:10147000218D01306062481E2085618D01396185B2
:1014800001047FF4E8AE202084F83D00002084F8B9
:101490003E00002189F8001005B0BDE8F08F00BFC4
:1014A00000202021206384F83D1084F83E00206C49
:1014B00040F02000206462B61EE000BF50F8141F08
:1014C000C90601460CD4FFF741FD0020202120630E
:1014D00084F83D1084F83E00206C40F020000AE0C3
:1014E0006FF01000086000202021206384F83D1078
:1014F00084F83E00206C20640120002189F800104F
:1015000005B0BDE8F08F00002DE9F04383B09946A7
:1015100016460F460446FFF719FD94F83D102029A2
:101520001CD1054620688169890713D5FFF70EFD98
:10153000401B1928F6D900202021206384F83D1093
:1015400084F83E00216C41F02001216484F83C00C5
:1015500004E000BF94F83C10012903D1022003B03D
:10156000BDE8F083012284F83C200368DDE90B1814
:101570000A9ADB0703D1036843F0010303600368A1
:1015800023F400630360212084F83D00402084F8A8
:101590003E000020206462626185608D39462085AE
:1015A0000020CFF6FF70E062204632464B46CDF871
:1015B0000080019501F086F920B1012003B0BDE85B
:1015C000F08300BF208D002850D0206808F101066C
:1015D000014651F8142F12062CD49EB1B8F1000F19
:1015E0005AD000BF086840055ED4FFF7AFFC401B2F
:1015F000404556D82068014651F8142F1206F1D5FF
:1016000018E000BF0A6852054ED40A68120611D4C9
:101610000A68520548D40A6812060BD40A685205B3
:1016200042D40A68120605D40A6852053CD40A68F6
:101630001206E7D5626A114611F8013B0361238D5A
:101640006162591E2185678D013F678547697F0764
:101650000AD50F0408D051780161911C6162991E6E
:101660002185628D013A62850904B1D12046414647
:101670002A4601F061FA38BB2068016841F4007124
:101680000160202084F83D00002084F83E0084F8AA
:101690003C0003B0BDE8F0830868400504D4FFF7C0
:1016A00055FC202004E000BF6FF480600860042037
:1016B00000212022216384F83D2084F83E10226C12
:1016C0001043206484F83C10206C04287FF475AF2C
:1016D0002068016841F400710160012003B0BDE899
:1016E000F083000010B586B0006845F60001C4F232
:1016F000000188424FF00001CDE90411CDE902114B
:101700002AD045F20041C4F20001884248D141F29A
:101710001804C4F20204206802A940F00800206006
:10172000206800F0080001900198C020029012206B
:1017300003900320059040F60040C4F20100FFF73B
:10174000EFFA606840F400106060606800F4001018
:101750000190019806B010BD41F21804C4F20204D1
:10176000206802A940F008002060206800F008000E
:10177000019001984FF440600290122003900320E2
:10178000059040F60040C4F20100FFF7C9FA606816
:1017900040F480006060606800F48000019001986F
:1017A00006B010BD40F2000040F2A021C2F20000DD
:1017B000C2F2000100780A68104408607047000017
:1017C00080B542F20000C4F20200016841F010014D
:1017D0000160032000F072F80F2000F005F800F01F
:1017E00027F8002080BD000070B540F20006C2F26C
:1017F000000640F224013278C2F200014FF47A73FD
:101800000968B3FBF2F20446B1FBF2F1084600F0BE
:1018100047FB0F2C4FF0010508D838B94FF0FF30C7
:1018200021460022002500F01DF87460284670BD96
:1018300082B041F21800C4F20200016841F00101D7
:101840000160016801F0010101910199416841F0D5
:1018500080514160406800F080500090009802B0D4
:101860007047000010B54EF60C5CCEF2000CDCF8B0
:101870000030C3F3022E8EF00704042C28BF04248A
:10188000BEF103034FF0FF3E0EFA04F438BF00230D
:10189000A14399400EFA03F39A43114300F00F025B
:1018A000043A624409010C3200F16043B0F1FF3F99
:1018B000C8BF03F56442117010BD00004EF60C5114
:1018C000CEF200010A684FF6FF031A4060F30A22C5
:1018D00042F0806040F0FD70086070472DE9F043F1
:1018E00081B0002800F0858042F20008C4F20208AE
:1018F0000446D8F800000D4600F0070088420CD2DC
:10190000D8F8000020F007002843C8F80000D8F8F5
:10191000000000F00700A8426BD1206841F20409E2
:101920008107C4F2020917D5410705D5D9F800107F
:1019300041F4E061C9F80010010705D5D9F800109D
:1019400041F46051C9F80010D9F80010A26821F0E4
:10195000F0011143C9F80010C00741D1D8F80000C8
:1019600000F00700A8420CD9D8F8000020F00700CA
:101970002843C8F80000D8F8000000F00700A8428B
:1019800037D12068410707D5D9F80010E26821F463
:10199000E0611143C9F80010000708D5D9F800002C
:1019A000216920F4605040EAC100C9F80000D9F86C
:1019B000002002F00C00082841F20020C0F27A005A
:1019C00050D147F2A073C2F38341C0F60003595CC3
:1019D000D2033BD440F60010C0F23D00484341E042
:1019E000606802280AD001282AD159F8041C89030A
:1019F00008D4012001B0BDE8F08300BF59F8041CF1
:101A00008901F6D5D9F8001021F003010843C9F87F
:101A10000000FFF79BFA064641F28837D9F800002C
:101A2000616800F00C00B0EB810F97D0FFF78EFAE1
:101A3000801BB842F2D9032001B0BDE8F08300BF9B
:101A400059F8041C8907D4D5DCE700BFD9F8002079
:101A500044F6A053C2F34042C0F600039A5C4843E8
:101A6000B0FBF2F0D9F8001044F6A252C1F3031112
:101A7000C0F60002515C40F2240220FA01F140F26B
:101A80000400C2F200000068C2F200021160FFF719
:101A9000ABFE002001B0BDE8F083000040F224005E
:101AA00041F20401C2F20000C4F2020100680968B8
:101AB00044F6B252C1F30221C0F60002515CC840A4
:101AC0007047000040F2240041F20401C2F200001D
:101AD000C4F202010068096844F6B252C1F3C2219F
:101AE000C0F60002515CC840704700002DE9F0418B
:101AF00082B0002868D00446007841F20006C00792
:101B0000C4F2020625D0706800F00C0004281BD037
:101B1000706800F00C00082802D17068C00313D46C
:101B20006068002800F06881B0F5A02F00F07C818B
:101B3000B0F5803F00F07C81306820F48030306068
:101B4000306820F4802076E13068800301D5606839
:101B5000D0B32078800718D5706810F00C0F07D02C
:101B6000706800F00C0008286ED17068C0036BD458
:101B70003068800702D52069012825D13068616965
:101B800020F0F80040EAC1003060207800071FD440
:101B90002078400732D4E56995B1706800F00C00F8
:101BA000082840F08F80012D0ED07068216A00F463
:101BB00080328A4208D1616A00F47010884203D1F1
:101BC000002002B0BDE8F081012002B0BDE8F08144
:101BD000A069002862D00020C4F242200121C0F890
:101BE0008014FFF7B3F90546706A800700F18C8016
:101BF000FFF7ACF9401B0228F6D92AE1F06910F092
:101C0000805808D1F06940F08050F061F06900F030
:101C100080500090009847F20007C4F2000738682F
:101C2000C00529D4386840F480703860FFF78EF919
:101C3000054600BF3868C0051ED4FFF787F9401B72
:101C40006428F7D905E100BF2069002840F20000B0
:101C5000C4F2422000F0828001210160FFF776F992
:101C6000054600BF306880073FF588AFFFF76EF983
:101C7000401B0228F6D9ECE0E068002800F08080E4
:101C8000052800F09780012800F09880306A20F045
:101C900001003062306A20F0040092E00020C4F2BB
:101CA00042200021C0F88014FFF750F9054600BF1C
:101CB000706A80077FF56CAFFFF748F9401B022878
:101CC000F6D9C6E00027C4F2422700203866FFF7A5
:101CD0003DF9022D05460BD13068800140F1BE80F0
:101CE000FFF734F9401B02284FF00300F4D968E7EE
:101CF000306880017FF564AFFFF728F9401B0228A8
:101D00004FF00300F4D95CE740F22400C2F2000077
:101D1000006844F6D351C1F26201A0FB0101480AF8
:101D2000019000BF00BF0198411E002801913FF4BF
:101D30002FAF00BF0198411E002801913FF428AF4A
:101D400000BF0198411E002801913FF421AF00BF60
:101D50000198411E00280191E4D119E7002101609A
:101D6000FFF7F4F8054600BF306880077FF50DAF38
:101D7000FFF7ECF8401B02284FF00300F4D920E7EE
:101D8000306A20F001003062306A20F004003062D6
:101D9000FFF7DCF8054641F2883700BF306A80075C
:101DA00020D5FFF7D3F8401BB8424FF00300F5D918
:101DB00007E700BF306A40F004003062306A40F04C
:101DC00001003062FFF7C2F8054641F2883700BFD4
:101DD000306A800706D4FFF7B9F8401BB842F7D93C
:101DE00037E000BFB8F1000F7FF4D5AEF06920F006
:101DF0008050F061CFE600BF306820F48030306062
:101E0000306820F480203060FFF7A0F8054600BF5E
:101E1000306880037FF59DAEFFF798F8401B64287B
:101E20004FF00300F4D9CCE6306840F480203060F5
:101E3000306840F480303060FFF788F8054600BF16
:101E4000306880033FF585AEFFF780F8401B6428BB
:101E5000F6D9032002B0BDE8F08100BF206AB0F5DA
:101E6000803F05D17168A26821F40031114371608F
:101E70007168626A21F47411104308437060012094
:101E80003866FFF763F80446306880013FF598AE86
:101E9000FFF75CF8001B02284FF00300F4D990E62E
:101EA000411E0020B0EB116F1CBF012070474EF2A5
:101EB0001002CEF2000251604EF62351CEF2000124
:101EC000F0230B70072190601160704710B590F8F7
:101ED0003C20012A4FF0020233D080F83D200268F6
:101EE000D2F804E0D2F808C00C682EF07003234347
:101EF00040F2FF74C4F20004A24253600ADCB2F163
:101F0000804F13D040F20043C4F200039A420DD038
:101F100011E000BF42F60043C4F201039A4205D02B
:101F200040F60003C4F200039A4204D149682CF041
:101F30008003194391600121002280F83D1080F850
:101F40003C20104610BD0000002804BF012070474F
:101F500010B5044690F83D0028B9002084F83C00F4
:101F6000204600F067F8022084F83D00206840F227
:101F7000FF730268C4F2000342F6004C9842C4F2B8
:101F8000010C15DCB0F1804F1AD040F20041C4F2D0
:101F90000001884214D0984218DCB0F1804F1DD067
:101FA00040F20041C4F20001884217D01AE000BF9D
:101FB000604505D040F60001C4F200018842EAD134
:101FC000A16822F070020A439842E6DD604505D020
:101FD00040F60001C4F20001884203D1216922F4D5
:101FE00040720A43A36922F08001D4F804E0E26859
:101FF000194360450160C262C0F828E002D16169FE
:10200000CCF8301001214161002084F8461084F89A
:102010003E1084F83F1084F8401084F8411084F892
:10202000421084F8431084F8441084F8451084F872
:102030003D1010BD81B0006842F60041C4F20101BC
:10204000884201D001B0704741F21800C4F202008A
:10205000016841F400610160006800F400600090D4
:10206000009801B07047000090F83D1001291CBF96
:1020700001207047022180F83D10006840F2FF7196
:10208000C4F20001884209DCB0F1804F12D040F266
:102090000041C4F2000188420CD012E042F6004137
:1020A000C4F20101884205D040F60001C4F20001EB
:1020B000884206D1816801F00701062904BF00208B
:1020C0007047016841F00101016000207047000085
:1020D0000146006841F21113026A1A4204D001223B
:1020E000002081F83D207047026A40F244431A42C2
:1020F000F5D1026822F0010202600122002081F87D
:102100003D20704780B590F83C20012A4FF0020234
:1021100000F0BF8080F83D20D0F800C04FF6777205
:10212000DCF8083023EA0202CCF808200B683F2BC9
:102130001CDD5F2B20DD602B50D0B3F5005F6DD030
:10214000702B40F0A080D1E901E3C968DCF80820D9
:1021500043EA0E0322F47F4243EA01211143CCF803
:102160000810DCF8081041F077018AE01F2B29DC09
:1021700063B3102B2AD086E0402B63D0502B40F065
:102180008280D1F804E0C968DCF82030DCF8202037
:1021900022F00102CCF82020DCF8182022F0F00216
:1021A00042EA011123F00A0242EA0E02CCF81810AA
:1021B000CCF82020DCF8081041F0570121F0200174
:1021C0005FE000BF202B01D0302B5CD1DCF8081081
:1021D00021F07001194341F0070152E0D1F804E009
:1021E000C968DCF8203023F01003CCF82030DCF88C
:1021F0001830DCF8202023F4704322F0A00243EAD8
:10220000013142EA0E12CCF81810CCF82020DCF88C
:10221000081041F0670121F0100132E0D1E901E33B
:10222000C968DCF8082043EA0E0322F47F4243EA3F
:1022300001211143CCF80810DCF8081041F480416A
:102240001FE000BFD1F804E0C968DCF82030DCF8FA
:10225000202022F00102CCF82020DCF8182022F007
:10226000F00242EA011123F00A0242EA0E02CCF81F
:102270001810CCF82020DCF8081041F0470121F0BC
:102280003001CCF808100121002280F83D1080F8C0
:102290003C20104680BD0000002804BF012070478C
:1022A00010B5044690F83D0028B9002084F83C00A1
:1022B000204600F05FF8242084F83D002068D4E92F
:1022C0000212C36823F40053C360036923F440532C
:1022D0001A430261D4E904231143C268194341F24D
:1022E0000C639A431143C1604169A26921F44071B2
:1022F000114343F60002C4F201029042416103D04F
:10230000FFF7CCFB02E000BFFFF7DCFB626819219E
:1023100048439100B0FBF1F048F21F51C5F2EB11B8
:10232000A0FB01235A096FF0630302FB0300322371
:1023300003EB0010A0FB0101F02303EA5113206816
:1023400003EB0212C1F3431111448160016921F4CE
:1023500090410161416921F02A014161C16841F464
:102360000051C16000202021206484F83D1084F8D1
:102370003E1010BD70B586B040F60004C4F20104F2
:10238000006804F5405100268842049602D006B049
:1023900070BD00BF41F21800C4F20200016802AD36
:1023A00041F480410160016801F48041019101998B
:1023B000016841F0040101600068294600F0040052
:1023C000019001984FF400700290022003900320C6
:1023D00005902046FEF7A4FC4FF48060CDE902068C
:1023E000204629460496FEF79BFC06B070BD00000F
:1023F0002DE9F04381B0044690F83D0020280DD12E
:102400000F4600294FF0010000F092801646002A86
:1024100000F08E8094F83C00012803D1022001B026
:10242000BDE8F083012084F83C004FF00009212032
:102430001D46C4F8409084F83D00FEF787FDA68451
:10244000E684A1688046B1F5805F25D12069002827
:102450001CBF38464F463E46074684F83C90E08C09
:1024600000B3681C20D0002D66D120680BE000BFAF
:1024700036F8021B00276FF35F214160E18C0139C0
:10248000E184E18C81B30168090675D5002FEFD096
:1024900017F8011BF1E700BF002684F83C90E08CA0
:1024A0000028DED120681FE0206802E001680906EC
:1024B00009D40168090606D4016809065CBF0168F1
:1024C0005FEA0161F2D51FB117F8011B05E000BFFB
:1024D00036F8021B00276FF35F214160E18C013960
:1024E000E184E18C0029E4D1016849061CD4002D67
:1024F00042D0691C0ED10168490615D4016849060D
:102500005CBF01685FEA41610ED401684906F2D5FB
:102510000AE000BFFEF71AFDA0EB08012068A942FF
:102520002AD800684006F5D5202084F83D00002018
:1025300001B0BDE8F08300BF206800BF0168090654
:1025400008D4FEF703FDA0EB08012068A942F5D9E5
:1025500012E000BF17B117F8011B04E036F8021BA8
:1025600000276FF35F214160E18C0139E184E18C48
:102570000029E3D1B8E700BFC16821F4D071C16080
:10258000416921F001014161202084F83D0084F877
:102590003E00002084F83C00032001B0BDE8F08339
:1025A000FEE700002DE9F04383B004460068994639
:1025B0000368904643F48062026002680B9D42F417
:1025C0008072026042690A9ED2070F461DD1711CBB
:1025D00011D0002E00F03681FEF7B8FC401BB0424F
:1025E00000F2328120684169C907F5D00DE000BFD3
:1025F0004169C90709D14169C90706D14169C907BC
:1026000004BF41695FEAC171F2D007F0FE070761BC
:102610004169890738D44169721C01F4806111D085
:1026200049BB002E00F03A81FEF790FC401BB042FF
:1026300000F2368120684169890725D4416949053E
:10264000F2D518E0B9B9416989071DD44169490536
:1026500011D44169890717D4416949050BD44169EF
:10266000890711D44169490505D4416989070BD40B
:1026700041694905E7D5016841F4007101606FF4D3
:102680008061416104200CE100210291014651F872
:10269000142F02924A680292029A0A68120620D403
:1026A000002E00F0AB80721C51D10A68520500F177
:1026B000AD800A68120614D40A68520500F1A6809B
:1026C0000A6812060DD40A68520500F19F800A6854
:1026D000120606D40A68520500F198800A681206AC
:1026E000E3D5B9F1010F45D04FEA18210161014648
:1026F00051F8142F12063DD4002E00F07F80721C7A
:102700002AD10A68520500F181800A68120631D484
:102710000A6852057AD40A6812062BD40A68520550
:1027200074D40A68120625D40A6852056ED40A6861
:102730001206E6D51EE000BFFEF708FC401BB042C3
:1027400061D82068014651F8142F1206C9D40868D0
:102750004005F1D55AE000BF0868400556D4FEF7A1
:10276000F5FB401BB0424ED82068014651F8142FAB
:102770001206F1D55FFA88F10161014651F8142F74
:1027800012061AD4D6B3721C33D10A6852053DD44E
:102790000A68120611D40A68520537D40A6812066C
:1027A0000BD40A68520531D40A68120605D40A68A7
:1027B00052052BD40A681206E7D50168002241F4BD
:1027C0008071016020464FF001113346009500F002
:1027D00007FA002850D02068006844E0FEF7B6FBF6
:1027E000401BB0420FD82068014651F8142F120642
:1027F000E3D408684005F1D508E000BF086840054B
:1028000004D4FEF7A3FB202004E000BF6FF4806037
:102810000860042000212022216384F83D2084F8F0
:102820003E10226C1043206484F83C10206C042875
:1028300043D12068016841F400710160012003B0B8
:10284000BDE8F083FEF782FB00202021206384F89E
:102850003D1084F83E00216C41F020012164216884
:1028600084F83C000868C00544BF4FF40070206441
:10287000032003B0BDE8F083206847F00101016147
:102880000221C0F20101204632462B4600F050FAE8
:10289000002818BF012003B0BDE8F083FEF756FB07
:1028A000202000212022216384F83D2084F83E105E
:1028B000226C1043206484F83C10012003B0BDE872
:1028C000F08300002DE9F04381B004460068904693
:1028D0000268099D42F4807202604269089E99462E
:1028E000D2070F461DD1711C11D0002E00F0D280EE
:1028F000FEF72CFB401BB04200F2CE8020684169FD
:10290000C907F5D00DE000BF4169C90709D1416988
:10291000C90706D14169C90704BF41695FEAC171AE
:10292000F2D007F0FE0101614169890738D441699D
:10293000721C01F4806111D049BB002E00F0E880C8
:10294000FEF704FB401BB04200F2E48020684169BE
:10295000890725D441694905F2D518E0B9B941691B
:1029600089071DD44169490511D44169890717D4E4
:10297000416949050BD44169890711D44169490569
:1029800005D4416989070BD441694905E7D5016838
:1029900041F4007101606FF4806141610420BAE08C
:1029A00000210091014651F8142F00924A680092CC
:1029B000009A0A6812061ED4002E00F08580721C50
:1029C0004DD10A68520500F187800A68120612D4B8
:1029D0000A68520500F180800A6812060BD40A6862
:1029E000520579D40A68120605D40A68520573D4D0
:1029F0000A681206E5D5B9F1010F43D04FEA182154
:102A00000161014651F8142F12063BD4002E5BD011
:102A1000721C29D10A6852055ED40A68120631D4A4
:102A20000A68520558D40A6812062BD40A6852055F
:102A300052D40A68120625D40A6852054CD40A6892
:102A40001206E7D51EE000BFFEF780FA401BB04239
:102A50003FD82068014651F8142F1206CBD40868DD
:102A60004005F1D538E000BF0868400534D4FEF7D2
:102A70006DFA401BB0422CD82068014651F8142F43
:102A80001206F1D55FFA88F10161002001B0BDE8BE
:102A9000F08300BFFEF75AFA00202021206384F85B
:102AA0003D1084F83E00216C41F020012164216832
:102AB00084F83C000868C00544BF4FF400702064EF
:102AC000032001B0BDE8F0830868400504D4FEF798
:102AD0003DFA202004E000BF6FF48060086004200D
:102AE00000212022216384F83D2084F83E10226CCE
:102AF0001043206484F83C10206C042817D120680F
:102B0000016841F400710160012001B0BDE8F0836B
:102B1000FEF71CFA202000212022216384F83D20AA
:102B200084F83E10226C1043206484F83C1001208D
:102B300001B0BDE8F083000070B50368044653F8A7
:102B4000140F400737D40E46F1B1701C24D100BFDA
:102B50001868400532D4186840072CD4186840051E
:102B60002CD41868400726D41868400526D4186865
:102B7000400720D41868400520D4186840074FF05B
:102B8000000048BF70BDE3E71868400516D4FEF7A3
:102B9000DDF9202016E000BF154600BF186840058B
:102BA0000CD4FEF7D3F9401BB042F2D8236853F897
:102BB000140F4007F2D5002070BD00BF6FF4806095
:102BC0001860042000212022216384F83D2084F82D
:102BD0003E10226C10432064012084F83C1070BD2C
:102BE0002DE9F04105461446DDF8188001F47F0018
:102BF0002A681E46B0F5803F8FB241D150693840F7
:102C0000C01BB0FA80F04009A0427BD1701C2DD0CF
:102C1000002E7BD0FEF79AF9A0EB0800B04277D8DF
:102C2000286840693840C01BB0FA80F04009A042D3
:102C3000F0D00020BDE8F08150693840C01BB0FAE8
:102C400080F04009A0425DD150693840C01BB0FA05
:102C500080F04009A04255D150693840C01BB0FAFD
:102C600080F04009A0424FF000005FD15069384029
:102C7000C01BB0FA80F04009A042DDD042E000BFA6
:102C800090693840C01BB0FA80F04009A04239D1A9
:102C9000701C1FD0D6B300BFFEF758F9A0EB080098
:102CA000B04235D8286880693840C01BB0FA80F03F
:102CB0004009A042F0D00020BDE8F0819069384082
:102CC000C01BB0FA80F04009A0424FF0000018BFCE
:102CD000BDE8F08190693840C01BB0FA80F040092F
:102CE000A0420FD190693840C01BB0FA80F0400973
:102CF000A04207D190693840C01BB0FA80F040096B
:102D0000A042DBD00020BDE8F08100BFFEF71EF935
:102D100000202021286385F83D1085F83E00296CAD
:102D200041F02001296485F83C000120BDE8F081D4
:102D3000F0B581B0044600681D4643698FB203EACE
:102D40000701B94202D1002001B0F0BD4169164629
:102D5000013201F480610FD059BB9EB3FEF7F6F843
:102D6000401BB04230D8206841693940B942EAD0AE
:102D700041694905F2D51CE0D9B941693940B942E8
:102D8000E1D04169490514D441693940B942DAD0EA
:102D9000416949050DD441693940B942D3D04169EF
:102DA000490506D441693940B942CCD04169490549
:102DB000E3D5016841F4007101606FF48061416105
:102DC000042002E0FEF7C2F8202000212022216327
:102DD00084F83D2084F83E10226C1043206484F86F
:102DE0003C10012001B0F0BD2DE9F04184B041F26A
:102DF0001800C4F20200016840F6004441F01001DE
:102E000001600168C4F2010401F010010091009911
:102E10000168012241F0200101600168012601F0F2
:102E2000200100910099016841F0080101600168EA
:102E300001F0080100910099016841F0040101606E
:102E40000068012100F00400009000982046FEF781
:102E500077F820464FF4407100224FF44078FEF797
:102E60006FF86D46032720462946CDE90066029695
:102E70000397FDF755FF0220CDE9020720462946BA
:102E8000CDE90086FDF74CFF04B0BDE8F0810000FD
:102E900080B540F26C1045F20041C2F20000C4F26D
:102EA000000148F2A06200234FF4804CC0F20102FE
:102EB00080E80E00C0E9033CC0E90533C0E90733F0
:102EC000FEF74AF8002808BF80BDBDE88040FDF746
:102ED000DFBE000080B540F2C01045F60001C2F22E
:102EE0000000C4F2000148F2A06200234FF4804CBD
:102EF000C0F2010280E80E00C0E9033CC0E90533DE
:102F0000C0E90733FEF728F8002808BF80BDBDE8F8
:102F10008040FDF7BDBE000080B586B040F21420B1
:102F200042F600420021C2F20000C4F2010247232F
:102F30004FF6FF7C0591CDE90311CDE90011C0E901
:102F40000023C0E9021CC0E904118161FEF7FCFF07
:102F5000002818BFFDF79CFE4FF48050029040F20D
:102F60001420C2F2000002A9FFF7CCF8002818BF15
:102F7000FDF78EFE40F21420C2F200006946FEF713
:102F8000A5FF002818BFFDF783FE06B080BD000036
:102F900080B540F25C2043F60001C2F20000C4F2AA
:102FA000010100234FF00C0C4FF4165280E80E0084
:102FB000C0E90333C0E905C3C361FFF76DF9002819
:102FC00008BF80BDBDE88040FDF762BEFEE700009F
:102FD000FEE700002DE9F04F85B040F2C014002557
:102FE0004FF480760127C2F200040DF1120B0DF1AF
:102FF00013084FF0000900BF09F1B0008DF8100070
:1030000004A8CDE90007204678210022012302967A
:10301000FEF77AFA0DF11100CDE90007204678217C
:10302000002201238DF811500296FEF76DFA102050
:103030008DF812002046782100220123CDE900B747
:103040000296FEF761FA4FF0000A00BF2046782191
:10305000402201238DF81350CDE900870296FEF738
:1030600053FA0AF101004FFA80FABAF1FF3FEDDCA2
:10307000B9F1070F09F10109BED305B0BDE8F08F22
:1030800080B5C820FDF70AFEBDE8804000F01EBBF9
:103090002DE9F04F89B0064640B20D460028A2F156
:1030A000200744BF02350026102BA5F1500040F048
:1030B0003F8140F2C0148DF818004FF0010906A8B6
:1030C000C2F200044FF48078CDE90009204678214F
:1030D00000220123CDF80880FEF716FA30091030DF
:1030E00005908DF819000DF11900CDE90009204671
:1030F000782100220123CDF80880FEF705FA06F0BA
:103100000F0004908DF81A000DF11A00CDE90009A6
:103110002046782100220123CDF80880FEF7F4F93B
:10312000F8B244F6E2720101C0F60002515C02EB13
:1031300000168DF81B100DF11B0720467821402248
:103140000123CDE90079CDF80880FEF7DDF970782C
:10315000317996F802A096F803B003918DF81B0020
:103160002046782140220123CDE90079CDF808805E
:10317000FEF7CAF920467821402201238DF81BA0D2
:10318000CDE90079CDF80880FEF7BEF92046782118
:10319000402201238DF81BB0CDE90079CDF80880DD
:1031A000FEF7B2F9039878218DF81B0020464022E3
:1031B0000123CDE90079CDF80880FEF7A5F97079F3
:1031C00078218DF81B00204640220123CDE90079AB
:1031D000CDF80880FEF798F9B07978218DF81B00BA
:1031E000204640220123CDE90079CDF80880FEF782
:1031F0008BF9F07978218DF81B00204640220123BD
:10320000CDE90079CDF80880FEF77EF9A5F14F00F1
:103210008DF81C0007A8CDE900092046782100227E
:103220000123CDF80880FEF76FF9059878218DF815
:103230001D000DF11D00CDE90009204600220123EB
:10324000CDF80880FEF760F9049878218DF81E000B
:103250000DF11E00CDE90009204600220123CDF822
:103260000880FEF751F9307A0DF11F058DF81F0027
:103270002046782140220123CDE90059CDF808806D
:10328000FEF742F9707A78218DF81F00204640221F
:103290000123CDE90059CDF80880FEF735F9B07A61
:1032A00078218DF81F00204640220123CDE90059E6
:1032B000CDF80880FEF728F9F07A78218DF81F0004
:1032C000204640220123CDE90059CDF80880FEF7C1
:1032D0001BF9307B78218DF81F0020464022012306
:1032E000CDE90059CDF80880FEF70EF9707B782102
:1032F0008DF81F00204640220123CDE90059CDF86A
:103300000880FEF701F9B07B78218DF81F00204678
:1033100040220123CDE90059CDF80880FEF7F4F8EA
:10332000F07BCDE900598DF81F00204689E000BFF1
:1033300040F2C01B8DF820004FF0010A08A8C2F22D
:10334000000B4FF48078CDE9000A5846782100221E
:103350000123CDF80880FEF7D7F8300910308DF83A
:1033600021000DF12100CDE9000A58467821002204
:103370000123CDF80880FEF7C7F806F00F008DF89E
:1033800022000DF12200CDE9000A584678210022E2
:103390000123CDF80880FEF7B7F8F8B244F6BA5129
:1033A00000EB4000C0F6000111F8102001EB4005D1
:1033B0008DF823200DF12306584678214022012361
:1033C000CDE9006ACDF80880FEF79EF86878AF78FE
:1033D000EC7895F804908DF8230058467821402227
:1033E0000123CDE9006ACDF80880FEF78DF8584634
:1033F0007821402201238DF82370CDE9006ACDF8B1
:103400000880FEF781F858467821402201238DF884
:103410002340CDE9006ACDF80880FEF775F85846DC
:103420007821402201238DF82390CDE9006ACDF860
:103430000880FEF769F86879CDE9006A8DF8230005
:103440005846782140220123CDF80880FEF75CF829
:1034500009B0BDE8F08F00002DE9F04F87B00646B7
:10346000A1F1500040F2C0158DF81400012705A805
:10347000C2F20005144604914FF4807ACDE90007AA
:103480002846782100220123CDF808A0FEF73CF859
:10349000300900F110080DF11500CDE900072846AC
:1034A0007821002201238DF81580CDF808A0FEF7C1
:1034B0002BF80DF1160006F00F0BCDE9000728469A
:1034C0007821002201238DF816B0CDF808A0FEF770
:1034D0001BF845F2C251C4EB0420C0F6000101EB19
:1034E00040064FF0FF340DF1170900BF3019407846
:1034F00078218DF81700284640220123CDE9009756
:10350000CDF808A0FEF700F801341F2CEED1049886
:1035100040F2C0144F388DF818004FF0010A06A889
:10352000C2F200044FF48079CDE9000A20467821E8
:1035300000220123CDF80890FDF7E6FF0DF11900F8
:10354000CDE9000A20467821002201238DF8198058
:10355000CDF80890FDF7D8FF0DF11A00CDE9000A6B
:1035600020467821002201238DF81AB0CDF808906A
:10357000FDF7CAFFFE250DF11B0700BF701940784B
:1035800078218DF81B00204640220123CDE9007AE6
:10359000CDF80890FDF7B8FF0135B5F58F7FEDD177
:1035A00007B0BDE8F08F00002DE9F04F85B0002B8B
:1035B000049103907CD00E981C464508981E0090FC
:1035C00058421746591E4FF000085FFA80FB42F23E
:1035D000107900264FF0000A0291019212E000BF1C
:1035E0000126039940F0300205FB08110E9BC8B27A
:1035F0000499D2B2FFF74CFD08F10108A0450AF189
:10360000010A55D06FEA0A00C0B2584502D1012024
:103610002AE000BF00996FEA0800A1EB0801C9B2D7
:10362000032900EB040101D2012009E001F0FC02B2
:10363000002301200433DFB2974200FB09F0F9D1E7
:10364000019F11F003010FD0012903D100EB80008D
:10365000400009E04FF47A72424302294FF06401BE
:1036600008BF00FB01F21046B7FBF0F04CF6CD416D
:10367000CCF6CC41A0FB0112D10801EB8101002E58
:10368000A0EB4100ADD102994145AADD0028A7D1A8
:103690000398049905FB08000E9BC0B22022FFF797
:1036A000F7FC002608F10108A0450AF1010AA9D19A
:1036B00005B0BDE8F08F00007047000070470000C3
:1036C000FEF770B870470000FEE70000F0B583B069
:1036D00040F2C01440F20807C2F200044FF48075B3
:1036E0000126C2F200072046782100220123CDE9FD
:1036F00000760295FDF708FF781CCDE9000620460C
:103700007821002201230295FDF7FEFEB81CCDE9C9
:10371000000620467821002201230295FDF7F4FEE1
:10372000F81CCDE9000620467821002201230295ED
:10373000FDF7EAFE381DCDE900062046782100227B
:1037400001230295FDF7E0FE781DCDE90006204635
:103750007821002201230295FDF7D6FEB81DCDE9A0
:10376000000620467821002201230295FDF7CCFEB9
:10377000F81DCDE90006204678210022012302959C
:10378000FDF7C2FE07F10800CDE9000620467821CA
:10379000002201230295FDF7B7FE07F10900CDE9EC
:1037A000000620467821002201230295FDF7ACFE99
:1037B00007F10A00CDE90006204678210022012306
:1037C0000295FDF7A1FE07F10B00CDE900062046AA
:1037D0007821002201230295FDF796FE07F10C00E7
:1037E000CDE9000620467821002201230295FDF74D
:1037F0008BFE07F10D00CDE900062046782100225E
:1038000001230295FDF780FE07F10E00CDE90006C9
:1038100020467821002201230295FDF775FE07F16D
:103820000F00CDE9000620467821002201230295F1
:10383000FDF76AFE07F11000CDE900062046782169
:10384000002201230295FDF75FFE07F11100CDE98B
:10385000000620467821002201230295FDF754FE40
:1038600007F11200CDE9000620467821002201234D
:103870000295FDF749FE07F11300CDE90006204649
:103880007821002201230295FDF73EFE07F1140086
:10389000CDE9000620467821002201230295FDF79C
:1038A00033FE07F11500CDE90006204678210022FD
:1038B00001230295FDF728FE07F11600CDE9000669
:1038C00020467821002201230295FDF71DFE07F115
:1038D0001700CDE900062046782100220123029539
:1038E000FDF712FE07F11800CDE900062046782109
:1038F000002201230295FDF707FE07F11900CDE92B
:10390000000620467821002201230295FDF7FCFDE8
:1039100007F11A00CDE90006204678210022012394
:103920000295FDF7F1FD03B0F0BD00002DE9F04771
:1039300084B0828C044622F00100762840F0038196
:103940008846A06A510041F28832012304F1320A0C
:10395000CDE9013289B2D0220123CDF800A0FDF7D4
:10396000B7FB002840F0EF809AF80000602802D0F2
:10397000582840F0E880A18CB622A06A8DF80E206D
:10398000490042F2107201250DF10E07029289B230
:10399000E022012300970195FDF7B6FD002840F0D5
:1039A000D28041F2883600BFA18CA06A490089B25A
:1039B000F3220123CDE900750296FDF789FB00286B
:1039C000F2D19DF80E00C007EED1A18CA06A49008B
:1039D00041F28835022689B288220123CDE900769A
:1039E0000295FDF775FB002840F0AD80BDF80E0094
:1039F000A18C2080A06A490089B28A220123CDE9E6
:103A000001650097FDF764FB002840F09C80BDF83D
:103A10000E00A18C6080A06A490041F28835022620
:103A200089B28C220123CDE900760295FDF750FB87
:103A3000002840F08880BDF80E00A18CA080A06A0C
:103A4000490089B28E220123CDE901650097FDF777
:103A50003FFB002877D1BDF80E00A18CE080A06A62
:103A6000490041F28835022689B290220123CDE92E
:103A700000760295FDF72CFB002864D1BDF80E00FE
:103A8000A18C2081A06A490089B292220123CDE94C
:103A900001650097FDF71CFB002854D1BDF80E000E
:103AA000A16A6081A08C04F10C03942200F0D6FC82
:103AB000002848D0A16AA08C04F10E03962200F0E1
:103AC000CDFC00283FD0A16AA08C04F110039822FD
:103AD00000F0C4FCB8B3A16AA08C04F112039A22CE
:103AE00000F0BCFC78B3A16AA08C04F114039C2202
:103AF00000F0B4FC38B3A16AA08C04F116039E2236
:103B000000F0ACFCF8B19AF80000602803D1204620
:103B100000F024FCB8B198F8010098F80510800076
:103B2000A28C40EA4111A06A8DF80E10510042F2B9
:103B300010720123CDE9013289B2F52201230097E9
:103B4000FDF7E2FC20B1002004B0BDE8F08700BF23
:103B500098F80050012D04BF002588F800509AF80D
:103B6000000098F8029098F80360602813D198F844
:103B70000410A28CA06A8DF80E10510042F210724F
:103B80000123CDE9013289B2F22201230097FDF72A
:103B9000BBFC0028D7D14FEA890040EA4610A28C2E
:103BA00040EA0501A06A8DF80E105100012242F290
:103BB0001076CDE9007289B2F42201230296FDF756
:103BC000A3FCB0FA80F0400904B0BDE8F087000023
:103BD000032101804FF00331C0F80210704700004C
:103BE0002DE9F04F8BB0054690F832009B466028D7
:103BF0008A46089208D0BBF1000F4FF0000018BFB2
:103C0000CBF800004FF0000BA98C0822A86A4900ED
:103C1000BBF1000F08BF062209AB41F28837CDE99E
:103C2000003289B2F72201230297FDF751FA80464C
:103C300030B1B8FA88F040090BB0BDE8F08F00BF92
:103C40009DF828009DF8271000019DF8292040EAE2
:103C5000013040EA12112A88B5F90460C2EB101055
:103C60004043C908B5F90230000BA1EB4201704393
:103C70005943801300EBE12EB5F90A70AEF5FA3323
:103C800083FB0319A1FB0726FC1701FB0466B5F9AA
:103C9000080009FB0766120A80FB030442EA066279
:103CA000EF8812EB0032A2FB072C9DF8242006922D
:103CB0009DF8252007924FEA043242EA10509DF801
:103CC000262040EB262000F5004005920EEB8E02E8
:103CD00000FB07C680321012721042EAE677002F0E
:103CE000CAF8000076D0B5F91070B5F90E00A1FB46
:103CF000074ACDE9034E83FB003E0020CFF6F0706B
:103D0000069C00F57F206043FC1701FB04A1079C83
:103D100009FB0711059FA0EB0410A0EB1710039FF0
:103D200000F580104408D7EBC07064EB010A4FEA3D
:103D30004E41C446C846B0EB4340B5F90C7041EA69
:103D4000D331E04640F6354C6AEB0101A0FB0C0490
:103D5000A1EBC70101FB0C41B5F91290F317FCF779
:103D6000E1F9420B42EAC142A2FB02374C13B5F91A
:103D7000166002FB047EA3FB06C702FB04EEF417E9
:103D800003FB0473B5F914700EFB0633A0FB074266
:103D9000FE1700FB06224FEA5C6601FB07224FEA92
:103DA000636E46EAC313E70C47EA4237C01841EB9B
:103DB0000E01C01941EBD241000ADDF810E040EAE3
:103DC000016000EB09100899BBF1000F086008D1F1
:103DD0002FE700BF00200899BBF1000F08603FF4F7
:103DE00028AF9DF82B009DF82A10800340EA8150EF
:103DF000E98B0023CFF6F073B5F9202001FB030017
:103E0000AEF5963101FB120095F922202B7F4A4333
:103E100059434FF40043921203EBE12151434FF415
:103E20000012B5F91A3002EBA121594300F5804088
:103E300001F50051C01389134843C11349432A7E39
:103E4000C9095143A0EB111020EAE070B0F1C85F3E
:103E500028BF4FF0C850000BCBF80000B8FA88F02C
:103E600040090BB0BDE8F08FF0B583B01C46164694
:103E70000F466B4602A901AA002C08BF2346FFF794
:103E8000AFFE0546D0B10298FCF75FFA0021C4F2FC
:103E9000C821FCF7AAF9019938600846FCF75EFAD8
:103EA0004FF06E51FCF76FF930603CB10098FCF7B1
:103EB00055FA4FF06A51FCF766F92060284603B0C6
:103EC000F0BD00009EB0FDF77BFC00240120CDE991
:103ED0001944CDE91744149018904FF4E0104FF4B2
:103EE000803102251D9014A8CDE91514CDE91B5190
:103EF000FDF7FCFD20B1EFF3108072B6FEE700BFC6
:103F00000F20CDE90F054FF48060CDE912040FA812
:103F100002211194FDF7E2FC20B1EFF3108072B69C
:103F2000FEE700BFFEF760FFFEF7B2FFFEF7D2FF2D
:103F3000FFF72EF8FEF7F0FFFFF7A2F8FFF74AF8B9
:103F4000102000210022FFF787FA20200021012203
:103F5000FFF782FA302000210222FFF77DFA40208D
:103F600000210322FFF778FA502000210422FFF7F6
:103F700073FA602000210522FFF76EFA70200021FD
:103F80000622FFF769FA802000210722FFF764FA72
:103F9000002002210822FFF75FFA102002210922E7
:103FA000FFF75AFA202002210A22FFF755FA3020A3
:103FB00002210B22FFF750FA402002213A2210235F
:103FC000FFF766F8002004210C22FFF745FA1020C5
:103FD00004210D22FFF740FA202004210E22FFF7D2
:103FE0003BFA302004210F22FFF736FA402004214B
:103FF0003A221023FFF74CF8002006211022FFF789
:104000002BFA102006211122FFF726FA2020062184
:104010001222FFF721FA302006211322FFF71CFAA3
:10402000402006213A221023FFF732F840F22807F9
:10403000C2F2000707F13C063046FFF7C9FD7621C2
:10404000B98640F26C11C2F2000107F11000B963A9
:1040500031460790FFF76AFC40F26C05C2F200059A
:1040600090BB9AA0416800F1100A0E9181689AE80D
:1040700000070D91C168B0F81CB00C91934805F190
:104080000C0128600E983C4668600D981D22A860BF
:104090000C984FF47A7381E801071D2027F8100B64
:1040A00040F25C20C2F200002946A5F81CB0FEF7E1
:1040B0009FF94FF4FA60FCF7F1FD38463146274688
:1040C000FFF734FC0028D9D097F8421087A089A2C6
:1040D0000691602908BF024688A1284600F0DEF953
:1040E0003880381D0E9007F108000D9007F10C0084
:1040F000059089A0D0E903A1D0E901980C91C1698C
:10410000D0E905B70B91016A808C102604910390C9
:10411000CDF808A0CDF828B0CDE9088739E000BF78
:104120000A2028800120DDF808A0208082B23046D5
:1041300029464FF47A73FEF75BF9A66800213046F2
:10414000C4F27A41FCF751F8FCF732F902460B460B
:1041500014A880A100F0A2F93046FCF715F9024638
:1041600048200421072310260096FFF71DFA80201F
:1041700004216B221023FEF78BFF8820042150229C
:104180001023FEF785FF9020042161221023FEF703
:104190007FFFFCF7EBFB8346FCF70AF902460B4670
:1041A0000FA85BA100F07AF95846FCF7EDF802463B
:1041B0004820022105230096FFF7F6F9702002211E
:1041C00043221023FEF764FF5646DDF814A007983B
:1041D0000E99DDE90C425346C846FFF745FE00281C
:1041E0000B99DDE9039B4C484FF0250736D100BF02
:1041F000C5E90008089805F11802C5E902060A9801
:104200002C6168610998544682E80308C246B046AA
:1042100040F2280640F25C20C2F20006C2F2000022
:10422000294625224FF47A73A5F8249026F8107BAE
:10423000FEF7DEF84FF4FA60FCF730FD30464646F4
:10424000D046A2460E99DDE90C425346FFF70CFE1C
:104250000B99002830484FF02507C9D040F22800BC
:10426000C2F20000D0E90160C146FCF7A1F8834624
:1042700030460F46FCF79CF80E4647F2B0710090AE
:104280002846C0F600015A4640F228043B46C2F2D6
:104290000004019600F002F940F25C26C2F200062A
:1042A000208082B2304629464FF47A73FEF7A0F898
:1042B000069860287FF434AFE068FCF779F802468E
:1042C0000B4628461EA100F0E9F82CE7424D50327B
:1042D000383020696E697469616C697A6174696FDC
:1042E0006E206661696C65640A000000424D4532CB
:1042F00038300000424D503238300000424D5032CC
:1043000038303A20666F756E642025730A0000000D
:10431000252E30326600000054656D706572617440
:104320007572652F70726573737572652072656141
:1043300064696E67206661696C6564210A0000002B
:104340002C2048756D69646974793A20252E32668F
:104350000A000000252E3033660000002DE9F047EA
:1043600086B0828C044600F11801806A5200012355
:1043700041F28835CDE9001391B2A12201230295C3
:10438000FCF7A6FE002857D1A18CA06A49000222A2
:104390000DF11203CDE9003289B2E1220123029529
:1043A0000125FCF795FE002846D1BDF81200A28C2D
:1043B000608304F11C01A06A520041F28836CDE905
:1043C000001591B2E32201230296FCF781FE98BB0F
:1043D000A18CA06A490005AA0225009289B2E422B4
:1043E000012302960195FCF773FE28BBA18CA06AFD
:1043F00049000DF116029DF814809DF8156041F2F8
:1044000088378DE8A40089B2E52201230125FCF755
:104410005FFE88B9A28C04F12201A06A52009DF8C7
:1044200016909DF817A0CDE9001591B2E72201235F
:104430000297FCF74DFE18B1002006B0BDE8F087EA
:1044400049EA0A2006F00F0141EA08110009E18358
:104450002084012006B0BDE8F087000070B584B06C
:104460001E460B46400002210DF10E0541F2883434
:10447000CDE9005181B2184601230294FCF728FED1
:1044800020B1B0FA80F0400904B070BDBDF80E1044
:104490003180B0FA80F0400904B070BD0FB4084B11
:1044A00010B504A902AA039800F0DEF8044602A998
:1044B000002000F070FC204610BC5DF814FB0000EA
:1044C000974D000802E008C8121F08C1002AFAD15F
:1044D00070477047002001E001C1121F002AFBD184
:1044E000704700002DE9FF5F82B00021DDE9043054
:1044F000020DDDF840B0034318D044F61050A2F28C
:10450000FF3242431514119801281FD0A5EB0B0070
:10451000401C5FEA000A4FF000064E4FDFF838916A
:10452000B046504615D5CAF1000413E01198012495
:104530004AA3012801D16FEA0B010298119AC0E940
:104540000031C0E9024206B0BDE8F09FCBF10000A7
:10455000DFE704460021404A491842EB0450CDE908
:10456000001012E0E00707D032463B46404649467D
:10457000FBF779FE8046894632463B46104619468F
:10458000FBF771FE06460F466410002CEAD1DDE908
:104590000401DDE90023BAF1000F06DAFBF763FE40
:1045A00042464B46FBF75FFE05E0FCF7B2F8424699
:1045B0004B46FCF7AEF804460E460022284BFCF7AB
:1045C0002FF903D84FF0FF30014607E00022254BBA
:1045D00020463146FBF7F6FFFCF70AF9102409E004
:1045E000002C0ADB0A220023FBF727FF039B303253
:1045F0001A55641E50EA0102F2D1641C039AC4F1F8
:1046000011031444119A012A03D0012208430DD149
:104610000AE0084304D000204FF0110B119072E71C
:10462000A3EB0B056D1E0DE05B4504DD4FF00002B2
:1046300005F1010504E003DA4FF00002A5F10105E0
:10464000002AECD002981199C0E90231C0E9004576
:1046500079E70000000014400000F03F3000000047
:104660000000F0430000E03F2DE9FF4F95B09B466E
:104670008946064600250FE2252877D100242746E3
:10468000F84A0121059400E0044316F8013F203B5D
:1046900001FA03F01042F7D130782A2811D06FF0D8
:1046A0002F033078A0F13002092A16D8059A44F079
:1046B000020402EB820203EB42021044761C0590D6
:1046C000EFE759F8042B0592002A03DA504244F42C
:1046D0000054059044F00204761C30782E2816D140
:1046E00016F8010F44F004042A280DD06FF02F02B1
:1046F0003078A0F13003092B09D807EB870302EBD0
:104700004303C718761CF3E759F8047B761C30780E
:104710006C280FD006DC4C2817D068280DD06A28EA
:1047200014D104E0742810D07A280FD10DE044F49D
:1047300000140AE044F4801401E044F44014727858
:10474000824202D104F58014761C761C30786628EB
:104750000BD013DC582877D009DC002875D0452809
:10476000F6D04628F4D047281AD19DE118E06328F6
:1047700035D0642879D0652812D195E1702873D09E
:1047800008DC6728F1D069286FD06E280DD06F281B
:1047900006D1B5E073282CD0752875D0782874D050
:1047A0005A46179990476D1C75E1C4F302500228D0
:1047B00009D003280DD0D9F8001004280DD00D60C1
:1047C00009F1040967E1D9F80010EA17C1E90052BC
:1047D000F6E7D9F800100D80F2E70D70F0E719F850
:1047E000041B8DF8001000208DF80100EA4601201E
:1047F00003E059F804AB4FF0FF3061074FF00001C0
:1048000002D40DE008F101018846B9420FDA804573
:10481000F8DB1AF808100029F4D108E008F10101CA
:1048200088468142FADB1AF808100029F6D105986B
:104830005B46A0EB080721463846179A00F094FA29
:10484000284400EB080507E04DE029E10DE01AF8E7
:10485000010B5A4617999047B8F10108F7D25B4609
:1048600021463846179A13E142E00A220092C4F327
:1048700002524FF0000A022A08D059F804CB032A4A
:104880004FEAEC710AD00DE029E02AE009F10701B6
:1048900021F00702F2E802C1914609E00FFA8CFC10
:1048A0004FEAEC71042A03D14FFA8CFC4FEAEC7109
:1048B000002907DA0A460021DCF1000C61EB020155
:1048C0002D2202E0220504D52B228DF8042001229E
:1048D00003E0E20701D02022F7E7904659E00A21E1
:1048E00002E010220DE010214FF0000A00910BE0D1
:1048F00010224FF0000A44F004040827009203E05D
:1049000008224FF0000A0092C4F30252022A05D096
:1049100059F804CB0021032A08D009E009F1070166
:1049200021F00702F2E802C1914605E01FFA8CFC73
:10493000042A01D10CF0FF0C4FF00008220728D503
:10494000702806D0009B83F0100353EA0A0305D0B9
:104950000EE040228DF80420012208E05CEA01020A
:1049600006D030228DF804208DF8050002229046F2
:10497000009B83F0080353EA0A030AD15CEA0102B0
:1049800001D1620705D530228DF804204FF00108CF
:104990007F1E582804D034A003900EA802900DE08A
:1049A00036A0F9E753466046009AFBF746FD844679
:1049B0000398825C0298401E029002705CEA01003B
:1049C000F0D1029806A9081A00F1200A600702D562
:1049D00024F4803400E00127574502DDA7EB0A00EC
:1049E00000E0002000EB0A01009005984144401AC5
:1049F0000590E00306D45B462146179A059800F01F
:104A0000B3F90544002706E001A85A46C05D17998E
:104A100090476D1C7F1C4745F6DBE0030CD55B46D9
:104A20002146179A059800F09FF9054404E03020CC
:104A30005A46179990476D1C0099481E009000290E
:104A4000F5DC08E0029802995A460078491C029168
:104A5000179990476D1CBAF10001AAF1010AF1DC27
:104A600065E1000009280100303132333435363732
:104A700038396162636465660000000030313233AA
:104A8000343536373839414243444546000000004A
:104A900000F058F90544761C307800287FF4ECAD1E
:104AA00019B02846BDE8F08F620700D4062709F147
:104AB000070222F0070CFCE80223E14603F000485D
:104AC0005FEA080C02D00FF2702C0DE05FEA045C84
:104AD00002D50FF2682C07E05FEAC47C02D00FF227
:104AE000602C01E0AFF2700C4FF0FF3823F0004370
:104AF000CDF850C065280CD006DC452809D04628E2
:104B00001DD047283DD13DE0662818D067287ED1CA
:104B100038E00021112F01DB112000E0781CCDE9E5
:104B2000000106A90EA8FFF7DDFCDDE90F010E9AD2
:104B300003910021009207F1010A04914DE04FF02A
:104B400000400097CDE9011006A90EA8FFF7CAFCA6
:104B5000DDE90F0203920E9B11990022DDF80CA0F3
:104B60000093049211B9791C00EB010AB7EB0A001B
:104B700004D4C0F1FF3007F1010A0490AAEB07004A
:104B8000019044E0012F00DA01270021112F01DDFF
:104B9000112000E03846CDE9000106A90EA8FFF774
:104BA000A1FCDDE90F010E9A03910021049100920E
:104BB000BA4621070CD40399514500DA8A46BAF166
:104BC000010F05DD009AAAF10101515C302908D0DE
:104BD000B84202DA10F1040F06DA0121CDE9011022
:104BE00015E0AAF10101E9E7002805DC0499014478
:104BF0000491AAEB000102E0411C514500DD8A4608
:104C00000499401A401C01904FF000400290200788
:104C100004D40198504501DBCDF8048000208DF8C4
:104C20004F0002980DF14F07B0F1004F25D02B2017
:104C30000E9002984FF0020800280CDA40420290D1
:104C40002D200E9007E00A210298FBF7E0FB30319F
:104C5000029007F8011DB8F10001A8F10108F2DC8B
:104C600002980028EFD1791E0E980870307800F075
:104C7000200040F0450007F8020D12A8C01B00F10B
:104C800007081498007800B1012000EB0A01019890
:104C900001EBE07105984144401A401E0590E00385
:104CA00006D45B462146179A059800F05DF8054446
:104CB0001498007818B15A46179990476D1CE00374
:104CC00024D55B462146179A059800F04DF8054417
:104CD0001CE00498002807DBDDE90301884203DDBE
:104CE0000098405C179901E0179930205A46904788
:104CF000049805F10105401C04900198401E0190A4
:104D000004D12E205A46179990476D1CBAF1000124
:104D1000AAF1010ADDDC05E017F8010B5A461799E4
:104D200090476D1CB8F10001A8F10108F4DC5B4666
:104D30002146179A0598ABE62D0000002B000000D5
:104D4000200000002DE9F041044600251E461746CC
:104D5000880404D405E039462020B0476D1C641E49
:104D6000F9D52846BDE8F0812DE9F041044600253B
:104D70001E469046C80301D5302700E0202788044E
:104D800004D505E041463846B0476D1C641EF9D590
:104D90002846BDE8F0810A68531C0B60107070470C
:104DA00001020000000000000000010203040607E9
:104DB00008090000000001020304000000000000D8
:104DC0000000002F000000000700070000147F14FF
:104DD0007F1400242A7F2A120062640813230036FD
:104DE0004955225000000503000000001C2241002C
:104DF000000041221C000014083E08140008083E70
:104E00000808000000A0600000080808080800006A
:104E100060600000002010080402003E5149453E39
:104E20000000427F40000042615149460021414557
:104E30004B31001814127F10002745454539003CBE
:104E40004A4949300001710905030036494949368C
:104E500000064949291E000036360000000056367B
:104E6000000000081422410000141414141400005F
:104E70004122140800020151090600324959513EED
:104E8000007C1211127C007F49494936003E4141A5
:104E90004122007F4141221C007F49494941007F56
:104EA00009090901003E4149497A007F0808087F45
:104EB0000000417F4100002040413F01007F081475
:104EC0002241007F40404040007F020C027F007F73
:104ED0000408107F003E4141413E007F0909090658
:104EE000003E4151215E007F09192946004649498B
:104EF00049310001017F0101003F4040403F001F58
:104F00002040201F003F4038403F006314081463D6
:104F100000070870080700615149454300007F41C0
:104F2000410000552A552A55000041417F000004E8
:104F30000201020400404040404000000102040021
:104F4000002054545478007F484444380038444486
:104F5000442000384444487F003854545418000812
:104F60007E0901020018A4A4A47C007F0804047830
:104F70000000447D4000004080847D00007F1028B8
:104F800044000000417F4000007C04180478007C4D
:104F90000804047800384444443800FC24242418CD
:104FA0000018242418FC007C080404080048545409
:104FB000542000043F444020003C4040207C001C22
:104FC0002040201C003C4030403C00442810284435
:104FD000001CA0A0A07C004464544C44141414147D
:104FE0001414000000000000000000000000000099
:104FF0000000000000F80000000000000033300056
:10500000000000100C06100C06000000000000005C
:10501000000040C07840C0784000043F04043F04D2
:105020000400007088FC08300000001820FF211EDA
:105030000000F008F000E018000000211C031E2111
:105040001E0000F00888700000001E21232419278C
:10505000211010160E0000000000000000000000EB
:105060000000000000E01804020000000007182003
:10507000400000020418E000000000402018070073
:105080000000404080F0804040000202010F010219
:105090000200000000F0000000000101011F0101FA
:1050A0000100000000000000000080B0700000005F
:1050B00000000000000000000000000101010101EB
:1050C000010100000000000000000030300000007E
:1050D0000000000000008060180400601806010055
:1050E000000000E010080810E000000F1020201061
:1050F0000F00001010F8000000000020203F2020CA
:105100000000007008080888700000302824222160
:105110003000003008888848300000182020201116
:105120000E000000C02010F8000000070424243FF7
:10513000240000F8088888080800001921202011A0
:105140000E0000E0108888180000000F11202011C8
:105150000E0000380808C83808000000003F0000B2
:1051600000000070880808887000001C222121229D
:105170001C0000E010080810E0000000312222119D
:105180000F00000000C0C000000000000030300030
:1051900000000000008000000000000080600000AF
:1051A00000000000804020100800000102040810E8
:1051B00020004040404040404000040404040404F7
:1051C00004000008102040800000002010080402A5
:1051D0000100007048080808F000000000303601A7
:1051E0000000C030C828E810E00007182724231466
:1051F0000B000000C038E0000000203C2302022722
:10520000382008F8888888700000203F202020116E
:105210000E00C030080808083800071820202010A9
:10522000080008F808080810E000203F202020109F
:105230000F0008F88888E8081000203F202023206D
:10524000180008F88888E8081000203F20000300B4
:105250000000C03008080838000007182020221E6F
:10526000020008F808000008F808203F2101012189
:105270003F20000808F8080800000020203F2020F8
:10528000000000000808F8080800C08080807F0047
:10529000000008F888C028180800203F20012638A0
:1052A000200008F8080000000000203F20202020F7
:1052B000300008F8F800F8F80800203F003F003FF1
:1052C000200008F830C00008F808203F2000071828
:1052D0003F00E01008080810E0000F102020201008
:1052E0000F0008F808080808F000203F210101011C
:1052F0000000E01008080810E0000F1824243850BF
:105300004F0008F8888888887000203F2000030C30
:105310003020007088080808380000382021212239
:105320001C00180808F8080818000000203F20009A
:10533000000008F808000008F808001F20202020BE
:105340001F000878880000C83808000007380E01E0
:105350000000F80800F80008F800033C0700073CCC
:105360000300081868808068180820302C03032C7C
:1053700030200838C800C83808000000203F20004E
:10538000000010080808C83808002038262120200E
:105390001800000000FE020202000000007F4040F2
:1053A0004000000C30C00000000000000001063882
:1053B000C00000020202FE000000004040407F00EA
:1053C00000000000040202020400000000000000CF
:1053D00000000000000000000000808080808080CD
:1053E00080800002020400000000000000000000B5
:1053F000000000008080808000000019242222220A
:105400003F2008F8008080000000003F112020119C
:105410000E000000008080800000000E112020207F
:105420001100000000808088F800000E112020107C
:105430003F200000808080800000001F2222222266
:105440001300008080F0888888180020203F2020EA
:1054500000000000808080808000006B9494949312
:10546000600008F8008080800000203F21000020BC
:105470003F2000809898000000000020203F20205E
:105480000000000000809898000000C08080807FAD
:10549000000008F8000080808000203F24022D30AA
:1054A0002000000808F8000000000020203F202015
:1054B00000008080808080808000203F20003F208E
:1054C000003F8080008080800000203F210000207D
:1054D0003F200000808080800000001F20202020CE
:1054E0001F00808000808000000080FFA12020112C
:1054F0000E000000008080808000000E112020A09F
:10550000FF80808080008080800020203F2120005C
:105510000100000080808080800000332424242447
:105520001900008080E0808000000000001F202023
:1055300000008080000000808000001F20202010DC
:105540003F20808080000080808000010E300806AF
:10555000010080800080008080800F300C030C30C0
:105560000F0000808000808080000020312E0E31EE
:105570002000808080000080808080818E701806EE
:10558000010000808080808080000021302C22215A
:10559000300000000000807C020200000000003F9C
:1055A00040400002027C800000000040403F0000BC
:1055B000000000000000FF00000000000000FF00ED
:1055C00000001060020CC0100827242424242404A6
:1055D00000000000000000000000000000000000CB
:1055E00000000000000000000000000000000000BB
:1055F00000000000000000000000000000000000AB
:10560000000000000000000000000000000000009A
:10561000000000000000000000000000000000008A
:10562000000000000000000000000000000000007A
:10563000000000000000000000000000000000006A
:10564000000000000000000000000000000000005A
:10565000000000000000000000000000000000004A
:10566000000000000000000000000000000000003A
:10567000000000000000000000000000000000002A
:10568000000000000000000000000000000000001A
:10569000000000000000000000000000000000000A
:1056A00000000000000000000000000000000000FA
:1056B00000000000000000000000000000000000EA
:1056C0000004047C0300000101010101013F40F0DE
:1056D00000000000000000000000000000000000CA
:1056E00000000000000000000000000000000000BA
:1056F00000000000000000000000000000000000AA
:105700000000000000000000000000000000000099
:105710000000000000000000000000000000000089
:105720000000000000000000000000000000000079
:105730000000000000000000000000000000000069
:105740000000000000000000000000000000000059
:105750000000000000000000000000000000000049
:105760000000000000000000000000000000000039
:105770000000000000000000000000000000000029
:105780000000000000000000000000000000000019
:105790000000000000000000000000000000000009
:1057A00000000000000000000000000000000000F9
:1057B00000000000000000000000000000000000E9
:1057C0000008884828180FE808080808080800009A
:1057D00000000000000000000000000000000000C9
:1057E00000000000000000000000000000000000B9
:1057F00000000000000000000000000000000000A9
:105800000000000000000000000000000000000098
:105810000000000000000000000000000000000088
:105820000000000000000000000000000000000078
:105830000000000000000000000000000000000068
:105840000000000000000000000000000000000058
:105850000000000000000000000000000000000048
:105860000000000000000000000000000000000038
:105870000000000000000000000000000000000028
:105880000000000000000000000000000000000018
:105890000000000000000000000000000000000008
:1058A00000000000000000000000000000000000F8
:1058B00000000000000000000000000000000008E0
:1058C000080909090909FF09090909090808000067
:1058D00000000000000000000000000000000000C8
:1058E00000000000000000000000000000000000B8
:1058F00000000000000000000000000000000000A8
:105900000000000000000000000000000000000097
:105910000000000000000000000000000000000087
:105920000000000000000000000000000000000077
:105930000000000000000000000000000000000067
:105940000000000000000000000000000000000057
:105950000000000000000000000000000000000047
:105960000000000000000000000000000000000037
:105970000000000000000000000000000000000027
:105980000000000000000000000000000000000017
:105990000000000000000000000000000000000007
:1059A00000000000000000000000000000000000F7
:1059B000000000000000000000000000000004845F
:1059C00084FC848400040484E41C84040400000037
:1059D00000000000000000000000000000000000C7
:1059E00000000000000000000000000000000000B7
:1059F00000000000000000000000000000000000A7
:105A00000000000000000000000000000000000096
:105A10000000000000000000000000000000000086
:105A20000000000000000000000000000000000076
:105A30000000000000000000000000000000000066
:105A40000000000000000000000000000000000056
:105A50000000000000000000000000000000000046
:105A60000000000000000000000000000000000036
:105A70000000000000000000000000000000000026
:105A80000000000000000000000000000000000016
:105A90000000000000000000000000000000000006
:105AA00000000000000000000000000000000000F6
:105AB0000000000000000000000000000020602046
:105AC0001F101004020100FF00000106000000008A
:105AD00000000000000000000000000000000000C6
