:020000040800F2
:10000000A00600200101000829360008F52B000891
:100010002536000889080008CD36000800000000D9
:10002000000000000000000000000000C1360008D1
:100030008D080008000000002D360008C5360008B5
:100040001B0100081B0100081B0100081B01000820
:100050001B0100081B0100081B0100081B01000810
:100060001B0100081B0100081B0100081B01000800
:100070001B0100081B0100081B0100081B010008F0
:100080001B0100081B0100081B0100081B010008E0
:100090001B0100081B0100081B0100081B010008D0
:1000A0001B0100081B0100081B0100081B010008C0
:1000B0001B0100081B0100081B0100081B010008B0
:1000C0001B0100081B0100081B0100081B010008A0
:1000D0001B0100081B0100081B0100081B01000890
:1000E0001B0100081B0100081B010008DFF80CD0F1
:1000F00000F02AFB004800478D3C0008A0060020C5
:100100000648804706480047FEE7FEE7FEE7FEE7B1
:10011000FEE7FEE7FEE7FEE7FEE7FEE7C93600087A
:10012000ED0000082DE9F0410024061B254671F181
:10013000000605DA01240027D0EB070067EB010178
:10014000161E73F1000605DA0027D2EB070201251F
:1001500067EB030300F0D7F886460E4617469C4629
:10016000AC4204D00025D0EB050E65EB010624B1AE
:100170000020D2EB000760EB030C704631463A4694
:100180006346BDE8F08180EA010210B502F0004349
:10019000400022D04A001FD0010E01EB1261C0F3D3
:1001A0005600C2F3560240F4000042F40002A0FBE5
:1001B000022000047F39140400D0401C50EA124091
:1001C00001D44000491EC2B20C0604EBD010401C02
:1001D0004008802A02D003E0002010BD20F001007A
:1001E000002900DA0020184310BD30B480EA010273
:1001F00002F0004530F0004221F0004013D090B1F1
:10020000C30DD40DC2F31601C0F31600E41A41F475
:10021000000140F400027D34914201D3641C00E0EF
:100220004900002C02DA30BC002070474FF4000077
:100230000023914201D3891A034340084FEA410148
:10024000F7D151B1914202D14FF0004105E002D205
:100250004FF0010101E06FF0010103EBC4502844AD
:1002600030BC00F081B8C10F80EAE0700844CA07D2
:100270009623002100F081B896230022114600F059
:100280007CB800F0004220F00040C10DC0F3160021
:1002900040F400007F2901DA00207047962903DC32
:1002A000C1F19601C84001E096398840002AF4D097
:1002B0004042704700F0004230F000400AD0C10DCB
:1002C00001F56071C0F3160042EA0151C20840070F
:1002D0001143704700200146704730B50B46014678
:1002E00000202022012409E021FA02F59D4205D3D5
:1002F00003FA02F5491B04FA02F52844151EA2F17F
:100300000102F1DC30BD2DE9F05F05460020924688
:100310009B4688460646814640241BE028464146C7
:100320004746224600F031FA53465A46C01A9141D8
:1003300010D311461846224600F018FA2D1A67EB22
:1003400001084F4622460120002100F00FFA17EB6A
:1003500000094E41201EA4F10104DFDC484631466D
:100360002A464346BDE8F09F0029A8BF7047401CBD
:10037000490008BF20F00100704710B4B0FA80FCBB
:1003800000FA0CF050EA010404BF10BC704749B1F8
:10039000CCF1200421FA04F411FA0CF118BF012168
:1003A00021430843A3EB0C01CB1D4FEA00614FEA48
:1003B000102042BF002010BC704700EBC350104417
:1003C0000029A4BF10BC7047401C490008BF20F0A2
:1003D000010010BC70472DE9FE4F804681EA030002
:1003E000C00F0C46009021F0004123F00045B8EB0F
:1003F0000200A94105D24046214690461C460B46C4
:10040000024623F00040104347D0270DC7F30A00EF
:10041000C3F30A510290401A019040286BDAC3F3EB
:10042000130040F4801B0098924620B10023D2EBC9
:10043000030A63EB0B0B01985946C0F1400250468A
:1004400000F094F906460D4650465946019A00F0D0
:10045000ACF910EB08006141002487EA115284EAEC
:10046000E7731A4340D0009A62B3019A012A4FEA17
:10047000075215DC001B61EB02014FF0004202EA5B
:100480000752CDE90042001C41F5801132462B464F
:1004900000F0ACF903B0BDE8F08F40462146F9E723
:1004A000001B61EB0201001C41F5801300185B4149
:1004B0002018A2F5001747EB030140EAD570B619E2
:1004C0006D4111E06D084FEA360645EAC0754FEA06
:1004D0000752001B61EB0201001C41F58011490825
:1004E0004FEA30000019514132462B4603B0BDE8B7
:1004F000F04F00F06CB90098012240000023D0EBCF
:10050000020263EBE073009821464FEAE074B8EB17
:10051000000061EB0401E9E783F000435BE781F051
:10052000004158E72DE9FE4F81EA030404F000443E
:1005300021F0004100944FF0000B23F0004350EAFB
:1005400001045ED052EA03045BD0C3F30A54C1F342
:100550000A552C44A4F2F3340194A0FB0254C1F3D5
:10056000130141F48011C3F3130343F4801301FB1F
:10057000024400FB034E840A970A44EA815447EA86
:100580008357A4FB076802958D0A05FB07854FEA90
:10059000932C04FB0C542705029D4FEA065847EAAA
:1005A0001637B5EB08056EEB070C870E920E47EA7F
:1005B000811742EA8312A7FB0201B6EB0B0164EB41
:1005C00000042B0D43EA0C335E1844EB1C50DA4652
:1005D0005146E7FB0201C5F313044FEA0B3343EA2C
:1005E00014534FEA0432019C43EA0603A4F10C04BD
:1005F0000294009CCDE900B400F0F8F803B0BDE827
:10060000F08F00200146F9E72DE9F04D81EA03045F
:1006100004F0004B21F0004514464FF0000A23F08F
:10062000004150EA050220D054EA01021DD0C5F372
:100630000A570246C5F31303C1F31300C1F30A5668
:1006400040F4801543F48013A7EB0608101BD64630
:1006500008F2FD3873EB050002D308F1010801E050
:1006600092185B41B8F1000F03DA00200146BDE8A3
:10067000F08D00204FF48011064684460EE0171BD3
:1006800073EB050705D3121B63EB050306434CEA26
:10069000010C49084FEA300092185B4150EA01070B
:1006A000EDD152EA030012D082EA040083EA050188
:1006B000084305D0101BAB4106D20122002306E0FF
:1006C00000224FF0004302E06FF0010253101AEBDA
:1006D00006004CEB085110EB0A0041EB0B01BDE8A2
:1006E000F04D00F074B8C1F30A52C1F3130140F2A7
:1006F000FF3341F480119A4202DA0020014670472C
:1007000040F233439A42A2F2334202DC524200F0FA
:100710003CB800F02BB8000030B5041E71F10004A5
:1007200004DB4FF00044404264EB0101141E73F1FE
:10073000000405DB1C464FF00043524263EB040308
:10074000994208BF904230BD064C074D06E0E06874
:1007500040F0010394E8070098471034AC42F6D308
:10076000FFF7C8FC204B0008404B0008202A04DBA0
:10077000203A00FA02F1002070479140C2F12003B4
:1007800020FA03F3194390407047202A04DB203AF3
:1007900021FA02F00021704721FA02F3D040C2F1A1
:1007A00020029140084319467047202A06DBCB17E8
:1007B000203A41FA02F043EAE07306E041FA02F31C
:1007C000D040C2F12002914008431946704710B54D
:1007D000141E73F1000408DA401C41F10001921864
:1007E0005B411A4301D120F0010010BD2DE9F04D0D
:1007F00092469B4611B1B1FA81F202E0B0FA80F262
:1008000020329046FFF7B2FF04460F4640EA0A0046
:1008100041EA0B0153465A46084313D0114653EAA6
:10082000010019D0C8F140025046FFF7AEFF05465F
:100830000E46504659464246FFF798FF084305D0FA
:10084000012004E020463946BDE8F08D0020054334
:1008500046EAE0762C4337430A986305E40AA0EBA6
:1008600008000022FD0A44EA47540A3002D500205D
:100870000146E9E7010510196941DDE9084500195C
:100880006941BDE8F04DA2E7FEE7000070470000B7
:10089000EFF3108072B600BFFEE70000B0B504466B
:1008A00000F024F9054640F20400C2F2000000788E
:1008B000611C18BF044400BF00F018F9401BA0429F
:1008C000FAD3B0BD2DE9F04F82B00E68002E00F0D3
:1008D000038140F20C4C41F200424FF6FF7EC4F21D
:1008E000010CC4F20102042700240123C1F2100EFE
:1008F0004FF0000A4FF00009904208BF032700970D
:1009000045E000BF012704F00C030F229A402BEAB8
:10091000020207FA03F34FEA9A051A4346F8252024
:10092000D1F804B040F20045C4F201055FEACB32D1
:100930002A6854BF22EA080242EA08022A606A686A
:100940005FEA8B3354BF22EA080242EA08026A6077
:100950005FEACB23AA6854BF22EA080242EA0802EF
:100960005FEA8B23AA60DCF800204FF0010354BF3C
:1009700022EA080242EA0802CCF800200E680AF1D6
:10098000010A36FA0AF204F1040400F0A58003FA21
:100990000AF816EA080FF1D04E68764512DC122EDE
:1009A00056D8DFE806F0350B454955555555555590
:1009B000555555555555554D510000BFD1F80C9022
:1009C00046E000BF4FF6FF72C1F2210296420FDCF3
:1009D0000022C1F2110296421AD00022C1F2120284
:1009E000964215D00022C1F22102964210D02FE08B
:1009F0000022C1F2220296420AD00022C1F2310244
:100A0000964205D00022C1F23202964220D100BFA8
:100A10008A684AB1012A14BFC0F81480C0F8108057
:100A20004FF0080914E000BF4FF0040910E000BFC8
:100A3000CA6802F108090BE04FF0000908E000BFA6
:100A4000CA6802F1040903E0CA6802F10C0900BF98
:100A500022460646BAF1080F24BF203A043637680A
:100A60000F25954027EA050509FA02F22A4332606C
:100A7000CA79D2067FF582AF41F21803C4F20203AD
:100A80001A6842F001021A601A6802F0010201922B
:100A9000019A40F20042C4F20102A2F57E762AF0E9
:100AA000030256F802B040F60002C4F2010290427E
:100AB00010D040F60042C4F2010290423FF422AF4F
:100AC00041F20002C4F20102009F904208BF0227D7
:100AD00019E700BF002716E702B0BDE8F08F00005D
:100AE000002A08BF090401617047000040F29C2001
:100AF000C2F200000068704770B5B8B3044690F8C1
:100B00003D0028B9002084F83C00204601F066F939
:100B1000242084F83D002068016821F00101016073
:100B2000016841F400410160016821F40041016065
:100B300001F030FB48F28041C0F21E0140F6001384
:100B4000D4F804E088424FF00001C0F23D0348F2BF
:100B5000A16C4FF0000238BF01219842C0F2010C95
:100B600038BF0122E64538BF0A460AB1012070BDF0
:100B70004DF68361C4F21B31A0FB01122168950C74
:100B80004B684FF4967623F03F0343EA9243754354
:100B900044F6D3564B60C1F262060B6AA5FB0656BB
:100BA000B50923F03F03E64538BF950C6A1C1A438C
:100BB0000A62CA6948F2A0664CF6FF73C0F20106E9
:100BC000B64522EA03020BD801384FEA4E03B0FBC8
:100BD000F3F001306FF31F30042898BF04201EE0AB
:100BE000A368013863B119230EFB03F3B0FBF3F0E4
:100BF00001306FF31F3078B100F5804008E000BF8E
:100C00000EEB4E03B0FBF3F001306FF31F3028B151
:100C100000F5004003E000BF012000E00120104388
:100C2000C8610868D4E9072320F0C00010431843C6
:100C30000860886848F2FF3204F10C0690434CCEFD
:100C400018431043A5698860C86820F0FF0030434E
:100C50002843C860086840F0010008600020202197
:100C6000206484F83D10206384F83E0070BD0000CD
:100C70002DE9F04782B0044600201F4616468846FC
:100C80000090FFF733FF94F83D1020291CD1054652
:100C900020688169890713D5FFF728FF401B1928B1
:100CA000F6D900202021206384F83D1084F83E000E
:100CB000216C41F02001216484F83C0004E000BF75
:100CC00094F83C10012903D1022002B0BDE8F0875E
:100CD000012184F83C100168C90703D1016841F083
:100CE00001010160016821F400610160222184F8A2
:100CF0003D10102184F83E10002121646662678552
:100D0000618D21850021CFF6FF71E162E16A026801
:100D100011F5803F42F48062026018BF012919D1A9
:100D2000016841F48071016041690A9EC90724D1BC
:100D3000711C18D0002E00F0CB8000BFFFF7D6FE4C
:100D4000401BB04200F2C68020684169C907F5D057
:100D500013E000BF0829E3D0216B1129E0D0E3E7BD
:100D60004169C90709D14169C90706D14169C90764
:100D700004BF41695FEAC171F2D02169B1F5804FCA
:100D800008D148F00101C9B201614169890740F108
:100D9000CC8003E1062101EAD81707F1F0010161D7
:100DA0004169090738D44169721C01F4806113D08C
:100DB000002940F0EA80002E00F06A82FFF796FEDC
:100DC000401BB04200F2668220684169090723D4C3
:100DD00041694905F2D5D8E0002940F0D680416943
:100DE000090719D44169490500F1CF804169090714
:100DF00012D44169490500F1C880416909070BD443
:100E00004169490500F1C1804169090704D441697C
:100E10004905E4D5B9E000BF5FFA88F10161416995
:100E2000890739D44169721C01F4806114D000290A
:100E300040F0AB80002E00F02B82FFF757FE401BE6
:100E4000B04200F2278220684169890724D44169B1
:100E50004905F2D599E000BF002940F0968041692C
:100E6000890719D44169490500F18F8041698907D3
:100E700012D44169490500F18880416989070BD482
:100E80004169490500F181804169890704D44169BC
:100E90004905E4D579E000BF002101914169019144
:100EA000816901910199016841F480710160416992
:100EB000C90734D1711C28D056B1FFF717FE401B6B
:100EC000B04207D820684169C907F6D027E000BFC3
:100ED000FFF70CFE00202021206384F83D1084F8E9
:100EE0003E00216C41F020012164216884F83C001F
:100EF0000868C00544BF4FF400702064012002B0B0
:100F0000BDE8F0874169C90709D14169C90706D120
:100F10004169C90704BF41695FEAC171F2D047F076
:100F2000F10101614169890738D44169721C01F4FA
:100F3000806111D049BB002E00F0AA81FFF7D6FDD9
:100F4000401BB04200F2A68120684169890725D480
:100F500041694905F2D518E0B9B9416989071DD43D
:100F60004169490511D44169890717D44169490587
:100F70000BD44169890711D44169490505D44169F8
:100F800089070BD441694905E7D5016841F400712F
:100F900001606FF48061416104207CE1218D0229B0
:100FA00010D0012924D0002938D1002101914169B4
:100FB0000191816901910199016841F40071016019
:100FC00037E000BF016841F400610160EFF3108079
:100FD00072B60020019020684169019181690191F8
:100FE0000199016821F48061016062B621E000BFCF
:100FF000016821F480610160EFF3108072B6002077
:10100000019020684169019181690191019901680C
:1010100041F40071016062B60BE000BF016841F469
:101020008061016000210191416901918069019015
:101030000198208D002800F01F8140F20C084BF22F
:101040008959771CC2F20008C1F2F8494FF0230A0F
:1010500080B2032818D8022840D0012868D1002E79
:1010600000F0D6802068014651F8142F520600F196
:10107000D3800868C00600F14381FFF737FD401BAD
:10108000B042EFD931E100BF86B100BF2068014610
:1010900051F8142F52060ED40868C00600F13081B2
:1010A000FFF724FD401BB042F0D91EE120684169E2
:1010B000490640F113810069616A0870606A22681C
:1010C000411C208D616201382085638D013B638561
:1010D00053695B0740F1AC8010699FE0206841696B
:1010E00049070FD4002F00F0A780002E00F01C81CC
:1010F000FFF7FCFC401BB04200F2188120684069F9
:101100004007F5D5EFF3108072B62068616A026877
:1011100042F40072026000690870606A218D01303B
:101120006062481E2085608D0138608562B66AE085
:101130002068416949070FD4002F00F08D80002EF0
:1011400000F0F280FFF7D2FC401BB04200F2EE80CC
:10115000206841694907F5D5016821F48061016083
:10116000EFF3108072B62068616A00690870606AE7
:10117000218D0130013960622185618D01396185E0
:10118000D8F80010C908A1FB0912110A01FB0AF1E5
:1011900000910099013900910099002900F08C809C
:1011A00021684A6952071ED40099013900910099BB
:1011B000002900F0818021684A69520713D4009900
:1011C000013900910099002976D021684A695207B7
:1011D00009D4009901390091009900296CD0216847
:1011E0004A695207D5D50A6842F400720A60096953
:1011F0000170606A218D01306062481E2085608D1B
:101200000138608562B62068616A006906E000BF47
:1012100020684169490661D50069616A0870606AA1
:10122000218D01306062481E2085618D0139618504
:1012300001047FF40DAF1FE0416949073FF562AF3C
:10124000416949075CBF41695FEA41713FF55AAFA7
:1012500041694907F0D555E7416949073FF57CAF3A
:10126000416949075CBF41695FEA41713FF574AF6D
:1012700041694907F0D56FE7202084F83D00002040
:1012800084F83E0084F83C0002B0BDE8F08700BF5F
:10129000FFF72CFC202000212022216384F83D2030
:1012A00084F83E10226C1043206484F83C10012026
:1012B00002B0BDE8F08700BF00202021206384F841
:1012C0003D1084F83E00216C41F02001216462B69B
:1012D00084F83C00012002B0BDE8F08750F8141FEC
:1012E000C90601460CD4FFF701FC00202021206331
:1012F00084F83D1084F83E00206C40F020000AE0A5
:101300006FF01000086000202021206384F83D1059
:1013100084F83E00206C2064002084F83C0001200A
:1013200002B0BDE8F08700BFFFF7E0FB00202021FE
:10133000206384F83D1084F83E00216C41F02001C8
:10134000216484F83C00012002B0BDE8F087000071
:101350002DE9F04381B01F46164688460446FFF744
:10136000C5FB94F83D10202920D1054620688169ED
:10137000890717D5FFF7BAFB401B1928F6D90020BB
:101380002021206384F83D1084F83E00216C022661
:1013900041F02001216484F83C00304601B0BDE8F2
:1013A000F08300BF94F83C10012905D10226304695
:1013B00001B0BDE8F08300BF012184F83C10016852
:1013C000C90703D1016841F001010160016821F4FE
:1013D00000610160212184F83D10102184F83E1045
:1013E0000021216466626785618D21850021CFF629
:1013F000FF71E162E16A11F5803F18BF012919D13F
:10140000016841F4807101604169DDF82090C907ED
:1014100023D119F1010116D0B9F1000F46D000BF58
:10142000FFF764FB401B484542D820684169C90763
:10143000F6D012E00829E3D0216B1229E0D0E3E7CF
:101440004169C90709D14169C90706D14169C9077D
:1014500004BF41695FEAC171F2D02169B1F5804FE3
:1014600002D1FE2161E000BF062101EAD811F0316E
:1014700001614169090757D4416919F1010201F479
:1014800080612FD0002946D1B9F1000F00F04281D0
:10149000FFF72CFB401B484500F23E812068416964
:1014A000090741D441694905F2D534E0FFF71EFB35
:1014B00000202021206384F83D1084F83E00216C38
:1014C000012641F020012164216884F83C0008686D
:1014D000C00544BF4FF400702064304601B0BDE841
:1014E000F08300BFB9B9416909071DD441694905B5
:1014F00011D44169090717D4416949050BD44169E1
:10150000090711D44169490505D4416909070BD47C
:1015100041694905E7D5016841F4007101606FF444
:10152000806141610420F8E0FF2101EA08010161C6
:10153000416989073AD4416919F1010201F48061D6
:1015400012D051BBB9F1000F00F0E080FFF7CEFAE6
:10155000401B484500F2DC8020684169890725D49A
:1015600041694905F2D518E0B9B9416989071DD427
:101570004169490511D44169890717D44169490571
:101580000BD44169890711D44169490505D44169E2
:1015900089070BD441694905E7D5016841F4007119
:1015A00001606FF4806141610420B6E0002600967E
:1015B00041690091816900910099218D002900F015
:1015C000958009F10108014651F8142F120635D40F
:1015D000B8F1000F16D0B9F1000F00F0AF8000BFD6
:1015E0000868400500F1B280FFF780FA401B4845CB
:1015F00000F2A9802068014651F8142F1206EFD599
:101600001CE000BF0A68520500F1A0800A681206BB
:1016100014D40A68520500F199800A6812060DD4A4
:101620000A68520500F192800A68120606D40A6818
:10163000520500F18B800A681206E3D5636A1946E9
:1016400011F8012B02616162618D01396185278D7D
:101650000146A7F1010CA4F828C051F8142F520735
:101660000DD55FEA0C420AD05A78A7F1020C02614C
:101670009A1C6262628D013A6285A4F828C00A68E9
:1016800052072FD4B8F1000F14D0B9F1000F7BD05E
:101690000868400500F18080FFF728FA401B4845A4
:1016A00077D82068014651F8142F5207F0D5B4F8C6
:1016B00028C017E00A6852056ED40A68520711D490
:1016C0000A68520568D40A6852070BD40A685205A2
:1016D00062D40A68520705D40A6852055CD40A68C5
:1016E0005207E7D55FEA0C417FF46DAF016841F422
:1016F00000710160202084F83D0084F83E6084F889
:101700003C60304601B0BDE8F08300BFFFF7EEF962
:10171000202002E0FFF7EAF92020002120222163A7
:1017200084F83D2084F83E10226C0126104320648A
:1017300084F83C10304601B0BDE8F08308684005ED
:1017400004D4FFF7D3F9202004E000BF6FF48060D9
:101750000860042000212022216384F83D2084F8C1
:101760003E10226C1043206484F83C10206C042846
:1017700025D120680126016841F4007101603046DE
:1017800001B0BDE8F08300BF0868400504D4FFF74E
:10179000ADF9202004E000BF6FF4806008600420F1
:1017A00000212022216384F83D2084F83E10226C21
:1017B0001043206484F83C10206C0428D9D0012602
:1017C000304601B0BDE8F0832DE9F04F85B0044606
:1017D00000201E4617460D460490FFF787F994F83F
:1017E0003D10202923D1804620688169890719D5B9
:1017F000FFF77CF9A0EB08001928F5D9002020217B
:10180000206384F83D1084F83E00206C04F13C090C
:1018100040F0200020640220002189F8001005B06B
:10182000BDE8F08FA14619F83C1F012904D1022020
:1018300005B0BDE8F08F00BF012289F800200368E1
:10184000DDE90F1A0E9ADB0703D1036843F00103A9
:101850000360036823F400630360222084F83D00E2
:10186000402084F83E000020206462626185608D23
:10187000294620850020CFF6FF70E06220463A46D8
:101880003346CDF800A0CDF8048001F0B5F918B1C9
:10189000012005B0BDE8F08F208D022810D001286E
:1018A00024D0002838D1002003902068416903919A
:1018B000816903910399016841F40071016037E087
:1018C0002068016841F400610160EFF3108072B696
:1018D0000020039020684169039181690391039975
:1018E000016821F48061016062B621E0206801682E
:1018F00021F480610160EFF3108072B60020039044
:10190000206841690391816903910399016841F459
:101910000071016062B60BE02068016841F48061EB
:10192000016000210391416903918069039003984C
:10193000208D002800F0238140F20C0B4BF28957D8
:101940000AF10105C2F2000BC1F2F847232680B26A
:10195000032819D8022845D001286FD1BAF1000F09
:1019600000F0FA802068014651F8142F520600F169
:10197000F7800868C00600F12F81FFF7B7F8A0EBE9
:1019800008005045EED91CE1BAF1000F12D000BF9B
:101990002068014651F8142F520610D40868C0067A
:1019A00000F11A81FFF7A2F8A0EB08005045EFD92B
:1019B00007E100BF20684169490640F1FB800069EA
:1019C000616A0870606A2268411C208D616201387A
:1019D0002085638D013B638553695B0740F1CC80B3
:1019E0001069BFE020684169490711D4002D00F05B
:1019F0009380BAF1000F00F0E280FFF777F8A0EBD8
:101A00000800504500F2DD80206840694007F4D5A9
:101A1000EFF3108072B62068616A026842F40072C7
:101A2000026000690870606A218D01306062481EA2
:101A30002085608D0138608562B668E02068416964
:101A4000490710D4002D77D0BAF1000F00F0B7800D
:101A5000FFF74CF8A0EB0800504500F2B280206878
:101A600041694907F4D5016821F480610160EFF311
:101A7000108072B62068616A00690870606A218D02
:101A80000130013960622185618D01396185DBF8A2
:101A90000010C908A1FB0712110A714304910499AF
:101AA000013904910499002976D021684A695207C6
:101AB0001DD4049901390491049900296CD021683E
:101AC0004A69520713D404990139049104990029F1
:101AD00062D021684A69520709D4049901390491F6
:101AE0000499002958D021684A695207D7D50A6855
:101AF00042F400720A6009690170606A218D013048
:101B00006062481E2085608D0138608562B620685D
:101B1000616A006926E000BF416949073FF578AF77
:101B2000416949075CBF41695FEA41713FF570AFA8
:101B300041694907F0D56BE74169490793D4416989
:101B400049075CBF41695FEA41713FF58CAF41696C
:101B50004907F1D587E700BF20684169490629D5C3
:101B60000069616A0870606A218D01306062481EF8
:101B70002085618D0139618501047FF4E8AE202064
:101B800084F83D00002084F83E00002189F8001010
:101B900005B0BDE8F08F00BF00202021206384F84D
:101BA0003D1084F83E00206C40F02000206462B6B6
:101BB0001EE000BF50F8141FC90601460CD4FEF702
:101BC00095FF00202021206384F83D1084F83E001A
:101BD000206C40F020000AE06FF010000860002048
:101BE0002021206384F83D1084F83E00206C20649E
:101BF0000120002189F8001005B0BDE8F08F000039
:101C00002DE9F04383B0994616460F460446FEF789
:101C10006DFF94F83D1020291CD10546206881698C
:101C2000890713D5FEF762FF401B1928F6D900205B
:101C30002021206384F83D1084F83E00216C41F09F
:101C40002001216484F83C0004E000BF94F83C10BB
:101C5000012903D1022003B0BDE8F083012284F8FA
:101C60003C200368DDE90B180A9ADB0703D10368FF
:101C700043F001030360036823F400630360212041
:101C800084F83D00402084F83E0000202064626219
:101C90006185608D394620850020CFF6FF70E062B7
:101CA000204632464B46CDF80080019501F034F9CC
:101CB00020B1012003B0BDE8F08300BF208D0028D3
:101CC00050D0206808F10106014651F8142F120681
:101CD0002CD49EB1B8F1000F5AD000BF086840055F
:101CE0005ED4FEF703FF401B404556D820680146EE
:101CF00051F8142F1206F1D518E000BF0A685205FA
:101D00004ED40A68120611D40A68520548D40A68EB
:101D100012060BD40A68520542D40A68120605D48A
:101D20000A6852053CD40A681206E7D5626A114671
:101D300011F8013B0361238D6162591E2185678D76
:101D4000013F678547697F070AD50F0408D051789E
:101D50000161911C6162991E2185628D013A628543
:101D60000904B1D1204641462A4601F00FFA38BB9A
:101D70002068016841F400710160202084F83D0072
:101D8000002084F83E0084F83C0003B0BDE8F083F6
:101D90000868400504D4FEF7A9FE202004E000BF37
:101DA0006FF480600860042000212022216384F801
:101DB0003D2084F83E10226C1043206484F83C10CF
:101DC000206C04287FF475AF2068016841F400712D
:101DD0000160012003B0BDE8F083000010B586B0BB
:101DE000006845F60001C4F2000188424FF000018E
:101DF000CDE90411CDE902112AD045F20041C4F227
:101E00000001884248D141F21804C4F2020420685B
:101E100002A940F008002060206800F0080001904E
:101E20000198C0200290122003900320059040F6F4
:101E30000040C4F20100FEF745FD606840F4001068
:101E40006060606800F400100190019806B010BD59
:101E500041F21804C4F20204206802A940F008000C
:101E60002060206800F00800019001984FF4406065
:101E70000290122003900320059040F60040C4F227
:101E80000100FEF71FFD606840F48000606060683C
:101E900000F480000190019806B010BD40F20400EB
:101EA00040F29C21C2F20000C2F2000100780A68F0
:101EB000104408607047000080B542F20000C4F290
:101EC0000200016841F010010160032000F072F887
:101ED0000F2000F005F800F027F8002080BD00007A
:101EE00070B540F20406C2F2000640F20C013278EE
:101EF000C2F200014FF47A730968B3FBF2F20446B0
:101F0000B1FBF2F1084600F047FB0F2C4FF0010542
:101F100008D838B94FF0FF3021460022002500F0E4
:101F20001DF87460284670BD82B041F21800C4F2FA
:101F30000200016841F001010160016801F0010146
:101F400001910199416841F080514160406800F081
:101F500080500090009802B07047000010B54EF617
:101F60000C5CCEF2000CDCF80030C3F3022E8EF0D5
:101F70000704042C28BF0424BEF103034FF0FF3EE6
:101F80000EFA04F438BF0023A14399400EFA03F37C
:101F90009A43114300F00F0200F160430901043A33
:101FA00003F564436244002848BF02F10C03197032
:101FB00010BD00004EF60C51CEF200010A684FF63B
:101FC000FF031A4060F30A2242F0806040F0FD7087
:101FD000086070472DE9F04381B0002800F085804B
:101FE00042F20008C4F202080446D8F800000D4688
:101FF00000F0070088420CD2D8F8000020F007005B
:102000002843C8F80000D8F8000000F00700A842F4
:102010006BD1206841F204098107C4F2020917D587
:10202000410705D5D9F8001041F4E061C9F8001066
:10203000010705D5D9F8001041F46051C9F8001026
:10204000D9F80010A26821F0F0011143C9F800107E
:10205000C00741D1D8F8000000F00700A8420CD911
:10206000D8F8000020F007002843C8F80000D8F88E
:10207000000000F00700A84237D12068410707D5CB
:10208000D9F80010E26821F4E0611143C9F80010AA
:10209000000708D5D9F80000216920F4605040EA13
:1020A000C100C9F80000D9F8002002F00C0008288F
:1020B00041F20020C0F27A0050D144F68623C2F3E8
:1020C0008341C0F60003595CD2033BD440F60010B4
:1020D000C0F23D00484341E0606802280AD0012870
:1020E0002AD159F8041C890308D4012001B0BDE8A5
:1020F000F08300BF59F8041C8901F6D5D9F8001007
:1021000021F003010843C9F80000FEF7EFFC064682
:1021100041F28837D9F80000616800F00C00B0EB9C
:10212000810F97D0FEF7E2FC801BB842F2D9032062
:1021300001B0BDE8F08300BF59F8041C8907D4D56D
:10214000DCE700BFD9F8002044F66C23C2F340421C
:10215000C0F600039A5C4843B0FBF2F0D9F80010D7
:1021600044F66E22C1F30311C0F60002515C40F246
:102170000C0220FA01F140F20800C2F200000068EF
:10218000C2F200021160FFF7ABFE002001B0BDE813
:10219000F083000040F20C0041F20401C2F20000A2
:1021A000C4F202010068096844F67E22C1F30221EC
:1021B000C0F60002515CC8407047000040F20C00BD
:1021C00041F20401C2F20000C4F202010068096891
:1021D00044F67E22C1F3C221C0F60002515CC84021
:1021E000704700002DE9F04182B0002868D0044615
:1021F000007841F20006C007C4F2020625D07068DC
:1022000000F00C0004281BD0706800F00C000828B7
:1022100002D17068C00313D46068002800F06881A0
:10222000B0F5A02F00F07C81B0F5803F00F07C81FC
:10223000306820F480303060306820F4802076E10F
:102240003068800301D56068D0B32078800718D546
:10225000706810F00C0F07D0706800F00C000828B0
:102260006ED17068C0036BD43068800702D52069D6
:10227000012825D13068616920F0F80040EAC100EA
:102280003060207800071FD42078400732D4E569F9
:1022900095B1706800F00C00082840F08F80012D87
:1022A0000ED07068216A00F480328A4208D1616AD7
:1022B00000F47010884203D1002002B0BDE8F08124
:1022C000012002B0BDE8F081A069002862D00020A2
:1022D000C4F242200121C0F88014FEF707FC054635
:1022E000706A800700F18C80FEF700FC401B02281A
:1022F000F6D92AE1F06910F0805808D1F06940F071
:102300008050F061F06900F080500090009847F232
:102310000007C4F200073868C00529D4386840F4C3
:1023200080703860FEF7E2FB054600BF3868C005E4
:102330001ED4FEF7DBFB401B6428F7D905E100BF84
:102340002069002840F20000C4F2422000F08280A0
:1023500001210160FEF7CAFB054600BF3068800717
:102360003FF588AFFEF7C2FB401B0228F6D9ECE030
:10237000E068002800F08080052800F097800128A0
:1023800000F09880306A20F001003062306A20F05E
:10239000040092E00020C4F242200021C0F8801422
:1023A000FEF7A4FB054600BF706A80077FF56CAF9F
:1023B000FEF79CFB401B0228F6D9C6E00027C4F2BA
:1023C000422700203866FEF791FB022D05460BD10F
:1023D0003068800140F1BE80FEF788FB401B022878
:1023E0004FF00300F4D968E7306880017FF564AFEF
:1023F000FEF77CFB401B02284FF00300F4D95CE79A
:1024000040F20C00C2F20000006844F6D351C1F261
:102410006201A0FB0101480A019000BF00BF0198C2
:10242000411E002801913FF42FAF00BF0198411ECB
:10243000002801913FF428AF00BF0198411E0028F9
:1024400001913FF421AF00BF0198411E0028019186
:10245000E4D119E700210160FEF748FB054600BF03
:10246000306880077FF50DAFFEF740FB401B022868
:102470004FF00300F4D920E7306A20F00100306209
:10248000306A20F004003062FEF730FB054641F26E
:10249000883700BF306A800720D5FEF727FB401B36
:1024A000B8424FF00300F5D907E700BF306A40F0AB
:1024B00004003062306A40F001003062FEF716FB23
:1024C000054641F2883700BF306A800706D4FEF720
:1024D0000DFB401BB842F7D937E000BFB8F1000F41
:1024E0007FF4D5AEF06920F08050F061CFE600BFF8
:1024F000306820F480303060306820F48020306014
:10250000FEF7F4FA054600BF306880037FF59DAE04
:10251000FEF7ECFA401B64284FF00300F4D9CCE638
:10252000306840F480203060306840F480303060A3
:10253000FEF7DCFA054600BF306880033FF585AE44
:10254000FEF7D4FA401B6428F6D9032002B0BDE898
:10255000F08100BF206AB0F5803F05D17168A268A4
:1025600021F40031114371607168626A21F47411C1
:1025700011430843706001203866FEF7B7FA04463D
:10258000306880013FF598AEFEF7B0FA001B0228D4
:102590004FF00300F4D990E6411E0020B0EB116F1C
:1025A0001CBF012070474EF21002CEF200025160B3
:1025B0004EF62351CEF20001F0230B7007219060FC
:1025C0001160704710B590F83C20012A4FF00202CC
:1025D00033D080F83D200268D2F804E0D2F808C079
:1025E0000C682EF07003234340F2FF74C4F2000421
:1025F000A24253600ADCB2F1804F13D040F2004394
:10260000C4F200039A420DD011E000BF42F600432D
:10261000C4F201039A4205D040F60003C4F200035D
:102620009A4204D149682CF080031943916001213A
:10263000002280F83D1080F83C20104610BD0000BC
:10264000002804BF0120704710B5044690F83D00F3
:1026500028B9002084F83C00204600F067F80220EA
:1026600084F83D00206840F2FF730268C4F2000362
:1026700042F6004C9842C4F2010C15DCB0F1804FD8
:102680001AD040F20041C4F20001884214D09842AE
:1026900018DCB0F1804F1DD040F20041C4F20001BF
:1026A000884217D01AE000BF604505D040F600010F
:1026B000C4F200018842EAD1A16822F070020A4304
:1026C0009842E6DD604505D040F60001C4F2000105
:1026D000884203D1216922F440720A43A36922F09F
:1026E0008001D4F804E0E268194360450160C262E9
:1026F000C0F828E002D16169CCF8301001214161B5
:10270000002084F8461084F83E1084F83F1084F8C6
:10271000401084F8411084F8421084F8431084F883
:10272000441084F8451084F83D1010BD81B0006855
:1027300042F60041C4F20101884201D001B0704765
:1027400041F21800C4F20200016841F40061016026
:10275000006800F400600090009801B0704700002D
:1027600080B590F83C20012A4FF0020200F0BF80B3
:1027700080F83D20D0F800C04FF67772DCF80830C2
:1027800023EA0202CCF808200B683F2B1CDD5F2BEC
:1027900020DD602B50D0B3F5005F6DD0702B40F082
:1027A000A080D1E901E3C968DCF8082043EA0E0300
:1027B00022F47F4243EA01211143CCF80810DCF8EF
:1027C000081041F077018AE01F2B29DC63B3102B3E
:1027D0002AD086E0402B63D0502B40F08280D1F885
:1027E00004E0C968DCF82030DCF8202022F0010287
:1027F000CCF82020DCF8182022F0F00242EA011187
:1028000023F00A0242EA0E02CCF81810CCF820207D
:10281000DCF8081041F0570121F020015FE000BF13
:10282000202B01D0302B5CD1DCF8081021F0700196
:10283000194341F0070152E0D1F804E0C968DCF81F
:10284000203023F01003CCF82030DCF81830DCF80E
:10285000202023F4704322F0A00243EA013142EA2F
:102860000E12CCF81810CCF82020DCF8081041F03B
:10287000670121F0100132E0D1E901E3C968DCF819
:10288000082043EA0E0322F47F4243EA0121114368
:10289000CCF80810DCF8081041F480411FE000BFBC
:1028A000D1F804E0C968DCF82030DCF8202022F000
:1028B0000102CCF82020DCF8182022F0F00242EAD5
:1028C000011123F00A0242EA0E02CCF81810CCF8EB
:1028D0002020DCF8081041F0470121F03001CCF84D
:1028E00008100121002280F83D1080F83C2010469D
:1028F00080BD0000002804BF0120704710B50446C9
:1029000090F83D0028B9002084F83C00204600F0F3
:1029100061F8242084F83D002068D4E90212C368DD
:1029200023F40053C360036923F440531A43026144
:10293000D4E904231143C268194341F20C639A435A
:102940001143C1604169A26921F44071114343F60A
:102950000002C4F201029042416103D0FFF71AFC69
:1029600002E000BFFFF72AFC62681921484391008A
:10297000B0FBF1F048F21F51C5F2EB11A0FB0123AF
:102980005A094FF69C73C0F6FF7302FB0300322313
:1029900003EB0010A0FB0101F02303EA51132068B0
:1029A00003EB0212C1F3431111448160016921F468
:1029B00090410161416921F02A014161C16841F4FE
:1029C0000051C16000202021206484F83D1084F86B
:1029D0003E1010BD70B586B040F60004C4F201048C
:1029E000006804F5405100268842049602D006B0E3
:1029F00070BD00BF41F21800C4F20200016802ADD0
:102A000041F480410160016801F480410191019924
:102A1000016841F0040101600068294600F00400EB
:102A2000019001984FF4007002900220039003205F
:102A300005902046FDF746FF4FF48060CDE9020681
:102A4000204629460496FDF73DFF06B070BD000004
:102A50002DE9F041044690F83D0020280ED10D46A6
:102A600000294FF0010000F08E801646002A08BFB2
:102A7000BDE8F08194F83C00012803D10220BDE8B4
:102A8000F08100BF012084F83C0000202064212058
:102A9000984684F83D00FEF729F8A684E684A168EC
:102AA0000646B1F5805F03D12069002800F0A080C0
:102AB0002F460025002084F83C00E08CE0B118F19E
:102AC00001001BD0B8F1000F60D120680BE000BFFF
:102AD00035F8021B00276FF35F214160E18C01395B
:102AE000E184E18C51B3016809066DD5002FEFD068
:102AF00017F8011BF1E700BF20681FE0206802E023
:102B00000168090609D40168090606D401680906A6
:102B10005CBF01685FEA0161F2D51FB117F8011BC4
:102B200005E000BF35F8021B00276FF35F2141600D
:102B3000E18C0139E184E18C0029E4D10168490686
:102B40001DD4B8F1000F3FD018F101010ED101687A
:102B5000490614D4016849065CBF01685FEA416117
:102B60000DD401684906F2D509E000BFFDF7BEFFAC
:102B7000811B2068414527D800684006F6D52020F3
:102B800084F83D000020BDE8F08100BF206800BF50
:102B90000168090606D4FDF7A9FF811B206841459D
:102BA000F6D911E017B117F8011B04E035F8021B44
:102BB00000276FF35F214160E18C0139E184E18CF2
:102BC0000029E5D1BAE700BFC16821F4D071C16026
:102BD000416921F001014161202084F83D0084F821
:102BE0003E00002084F83C000320BDE8F08100BFD7
:102BF00000275FE7FEE700002DE9F04383B00446BD
:102C0000006899460368904643F480620260026857
:102C10000B9D42F48072026042690A9ED2070F4601
:102C20001DD1711C11D0002E00F03681FDF75EFF22
:102C3000401BB04200F2328120684169C907F5D0DB
:102C40000DE000BF4169C90709D14169C90706D133
:102C50004169C90704BF41695FEAC171F2D007F059
:102C6000FE0707614169890738D44169721C01F484
:102C7000806111D049BB002E00F03A81FDF736FF8C
:102C8000401BB04200F2368120684169890725D493
:102C900041694905F2D518E0B9B9416989071DD4E0
:102CA0004169490511D44169890717D4416949052A
:102CB0000BD44169890711D44169490505D441699B
:102CC00089070BD441694905E7D5016841F40071D2
:102CD00001606FF48061416104200CE100210291E8
:102CE000014651F8142F02924A680292029A0A6829
:102CF000120620D4002E00F0AB80721C51D10A685D
:102D0000520500F1AD800A68120614D40A68520513
:102D100000F1A6800A6812060DD40A68520500F177
:102D20009F800A68120606D40A68520500F198804E
:102D30000A681206E3D5B9F1010F45D04FEA182110
:102D40000161014651F8142F12063DD4002E00F007
:102D50007F80721C2AD10A68520500F181800A68BE
:102D6000120631D40A6852057AD40A6812062BD4A6
:102D70000A68520574D40A68120625D40A685205F6
:102D80006ED40A681206E6D51EE000BFFDF7AEFE5F
:102D9000401BB04261D82068014651F8142F12063A
:102DA000C9D408684005F1D55AE000BF086840055D
:102DB00056D4FDF79BFE401BB0424ED8206801461A
:102DC00051F8142F1206F1D55FFA88F1016101461E
:102DD00051F8142F12061AD4D6B3721C33D10A68D4
:102DE00052053DD40A68120611D40A68520537D438
:102DF0000A6812060BD40A68520531D40A68120612
:102E000005D40A6852052BD40A681206E7D5016872
:102E1000002241F48071016020464FF001113346D9
:102E2000009500F007FA002850D02068006844E0C0
:102E3000FDF75CFE401BB0420FD82068014651F8F8
:102E4000142F1206E3D408684005F1D508E000BF4E
:102E50000868400504D4FDF749FE202004E000BFC7
:102E60006FF480600860042000212022216384F830
:102E70003D2084F83E10226C1043206484F83C10FE
:102E8000206C042843D12068016841F4007101607E
:102E9000012003B0BDE8F083FDF728FE00202021CB
:102EA000206384F83D1084F83E00216C41F020013D
:102EB0002164216884F83C000868C00544BF4FF4D1
:102EC00000702064032003B0BDE8F083206847F061
:102ED000010101610221C0F20101204632462B4668
:102EE00000F050FA002818BF012003B0BDE8F083BD
:102EF000FDF7FCFD202000212022216384F83D20E5
:102F000084F83E10226C1043206484F83C100120A9
:102F100003B0BDE8F08300002DE9F04381B0044622
:102F2000006890460268099D42F48072026042691E
:102F3000089E9946D2070F461DD1711C11D0002E54
:102F400000F0D280FDF7D2FD401BB04200F2CE80EF
:102F500020684169C907F5D00DE000BF4169C90784
:102F600009D14169C90706D14169C90704BF41694F
:102F70005FEAC171F2D007F0FE0101614169890782
:102F800038D44169721C01F4806111D049BB002E14
:102F900000F0E880FDF7AAFD401BB04200F2E4809B
:102FA00020684169890725D441694905F2D518E0AF
:102FB000B9B9416989071DD44169490511D44169ED
:102FC000890717D4416949050BD44169890711D490
:102FD0004169490505D4416989070BD4416949050F
:102FE000E7D5016841F4007101606FF480614161CF
:102FF0000420BAE000210091014651F8142F0092FC
:103000004A680092009A0A6812061ED4002E00F048
:103010008580721C4DD10A68520500F187800A68CC
:10302000120612D40A68520500F180800A6812065E
:103030000BD40A68520579D40A68120605D40A68C6
:10304000520573D40A681206E5D5B9F1010F43D0D1
:103050004FEA18210161014651F8142F12063BD4A2
:10306000002E5BD0721C29D10A6852055ED40A6812
:10307000120631D40A68520558D40A6812062BD4B5
:103080000A68520552D40A68120625D40A68520505
:103090004CD40A681206E7D51EE000BFFDF726FDF6
:1030A000401BB0423FD82068014651F8142F120649
:1030B000CBD408684005F1D538E000BF086840056A
:1030C00034D4FDF713FD401BB0422CD820680146D4
:1030D00051F8142F1206F1D55FFA88F10161002032
:1030E00001B0BDE8F08300BFFDF700FD0020202106
:1030F000206384F83D1084F83E00216C41F02001EB
:103100002164216884F83C000868C00544BF4FF47E
:1031100000702064032001B0BDE8F083086840051A
:1031200004D4FDF7E3FC202004E000BF6FF48060CE
:103130000860042000212022216384F83D2084F8C7
:103140003E10226C1043206484F83C10206C04284C
:1031500017D12068016841F400710160012001B0BD
:10316000BDE8F083FDF7C2FC20200021202221636E
:1031700084F83D2084F83E10226C1043206484F8CB
:103180003C10012001B0BDE8F083000070B5036879
:10319000044653F8140F400737D40E46F1B1701CA3
:1031A00024D100BF1868400532D4186840072CD4D9
:1031B000186840052CD41868400726D418684005C4
:1031C00026D41868400720D41868400520D4186811
:1031D00040074FF0000048BF70BDE3E718684005A6
:1031E00016D4FDF783FC202016E000BF154600BF73
:1031F000186840050CD4FDF779FC401BB042F2D8AA
:10320000236853F8140F4007F2D5002070BD00BFAB
:103210006FF480601860042000212022216384F86C
:103220003D2084F83E10226C10432064012084F875
:103230003C1070BD2DE9F04105461446DDF81880BC
:1032400001F47F002A681E46B0F5803F8FB241D15D
:1032500050693840C01BB0FA80F04009A0427BD1D1
:10326000701C2DD0002E7BD0FDF740FCA0EB080099
:10327000B04277D8286840693840C01BB0FA80F067
:103280004009A042F0D00020BDE8F08150693840EC
:10329000C01BB0FA80F04009A0425DD150693840AF
:1032A000C01BB0FA80F04009A04255D150693840A7
:1032B000C01BB0FA80F04009A0424FF000005FD17F
:1032C00050693840C01BB0FA80F04009A042DDD000
:1032D00042E000BF90693840C01BB0FA80F040095E
:1032E000A04239D1701C1FD0D6B300BFFDF7FEFB42
:1032F000A0EB0800B04235D8286880693840C01B70
:10330000B0FA80F04009A042F0D00020BDE8F08182
:1033100090693840C01BB0FA80F04009A0424FF0DD
:10332000000018BFBDE8F08190693840C01BB0FABA
:1033300080F04009A0420FD190693840C01BB0FA1C
:1033400080F04009A04207D190693840C01BB0FA14
:1033500080F04009A042DBD00020BDE8F08100BF32
:10336000FDF7C4FB00202021286385F83D1085F877
:103370003E00296C41F02001296485F83C000120C1
:10338000BDE8F081F0B581B0044600681D46436990
:103390008FB203EA0701B94202D1002001B0F0BDAB
:1033A00041691646013201F480610FD059BB9EB3CA
:1033B000FDF79CFB401BB04230D820684169394082
:1033C000B942EAD041694905F2D51CE0D9B9416951
:1033D0003940B942E1D04169490514D441693940C5
:1033E000B942DAD0416949050DD441693940B94241
:1033F000D3D04169490506D441693940B942CCD09E
:1034000041694905E3D5016841F4007101606FF439
:1034100080614161042002E0FDF768FB202000216B
:103420002022216384F83D2084F83E10226C104352
:10343000206484F83C10012001B0F0BDF0B585B0E7
:1034400041F21800C4F20200016840F6004441F065
:10345000100101600168C4F2010401F01001019142
:1034600001990168002241F02001016001684FF4D8
:10347000985501F02001019101990168002641F061
:1034800008010160016801F00801019101990168DA
:1034900041F00401016000684FF4985100F004000D
:1034A000019001982046FDF71BFB02200195039037
:1034B000032001AD01270490204629460297FDF71D
:1034C00001FA4FF4604001A9C1C120462946FDF729
:1034D000F9F94FF4807001A9C1C1A4F580602946B3
:1034E000FDF7F0F905B0F0BD80B540F2681045F287
:1034F0000041C2F20000C4F2000148F2A0620023C1
:103500004FF4804CC0F2010280E80E00C0E9033C99
:10351000C0E90533C0E90733FDF7EEFA002808BF1C
:1035200080BDBDE88040FDF7B3B9000080B540F232
:10353000BC1045F60001C2F20000C4F2000148F2DE
:10354000A06200234FF4804CC0F2010280E80E001C
:10355000C0E9033CC0E90533C0E90733FDF7CCFA05
:10356000002808BF80BDBDE88040FDF791B900008C
:1035700080B586B040F2102042F600420021C2F22F
:103580000000C4F2010247234FF6FF7C0591CDE90C
:103590000311CDE90011C0E90023C0E9021CC0E914
:1035A00004118161FFF74CF8002818BFFDF770F98E
:1035B0004FF48050029040F21020C2F2000002A9A5
:1035C000FFF7CEF8002818BFFDF762F940F210208F
:1035D000C2F200006946FEF7F5FF002818BFFDF7AC
:1035E00057F906B080BD000080B540F2582043F680
:1035F0000001C2F20000C4F2010100234FF00C0CE4
:103600004FF4165280E80E00C0E90333C0E905C349
:10361000C361FFF76FF9002808BF80BDBDE8804097
:10362000FDF736B9FEE70000FEE700007047000036
:1036300070B582B040F2100440F6200040F2BC1594
:10364000C2F20004C2F20800C2F200052060322675
:103650002846B021224602230096FDF779FE4FF45A
:103660007A70FDF71BF904F10C022846B0210623FD
:103670000096FDF7FDFAA08940BAFCF7F4FDB4F816
:103680000F10606048BAFCF7EEFDA06002B070BD9C
:1036900080B582B040F21002C2F200024FF44870CE
:1036A000108040F2BC104FF0320CC2F20000B0218A
:1036B0000223CDF800C0FDF74BFE02B080BD000034
:1036C00070470000FEF7EABB70470000FEE700000D
:1036D0002DE9F04784B0828C044622F00100762860
:1036E00040F003818846A06A510041F288320123EC
:1036F00004F1320ACDE9013289B2D0220123CDF89A
:1037000000A0FEF761F8002840F0EF809AF8000072
:10371000602802D0582840F0E880A18CB622A06A28
:103720008DF80E20490042F2107201250DF10E07AE
:10373000029289B2E022012300970195FEF760FA18
:10374000002840F0D28041F2883600BFA18CA06AE8
:10375000490089B2F3220123CDE900750296FEF7F4
:1037600033F80028F2D19DF80E00C007EED1A18CED
:10377000A06A490041F28835022689B288220123D5
:10378000CDE900760295FEF71FF8002840F0AD80E5
:10379000BDF80E00A18C2080A06A490089B28A225F
:1037A0000123CDE901650097FEF70EF8002840F0EF
:1037B0009C80BDF80E00A18C6080A06A490041F297
:1037C0008835022689B28C220123CDE90076029544
:1037D000FDF7FAFF002840F08880BDF80E00A18CAC
:1037E000A080A06A490089B28E220123CDE901653B
:1037F0000097FDF7E9FF002877D1BDF80E00A18CF6
:10380000E080A06A490041F28835022689B2902200
:103810000123CDE900760295FDF7D6FF002864D19B
:10382000BDF80E00A18C2081A06A490089B29222C5
:103830000123CDE901650097FDF7C6FF002854D1AB
:10384000BDF80E00A16A6081A08C04F10C039422E3
:1038500000F048FC002848D0A16AA08C04F10E03B7
:10386000962200F03FFC00283FD0A16AA08C04F112
:103870001003982200F036FCB8B3A16AA08C04F1C2
:1038800012039A2200F02EFC78B3A16AA08C04F1F6
:1038900014039C2200F026FC38B3A16AA08C04F12A
:1038A00016039E2200F01EFCF8B19AF80000602872
:1038B00003D1204600F096FBB8B198F8010098F8C3
:1038C00005108000A28C40EA4111A06A8DF80E100C
:1038D000510042F210720123CDE9013289B2F52282
:1038E00001230097FEF78CF920B1002004B0BDE859
:1038F000F08700BF98F80050012D04BF002588F81C
:1039000000509AF8000098F8029098F80360602838
:1039100013D198F80410A28CA06A8DF80E105100F3
:1039200042F210720123CDE9013289B2F222012361
:103930000097FEF765F90028D7D14FEA890040EAE1
:103940004610A28C40EA0501A06A8DF80E105100C5
:10395000012242F21076CDE9007289B2F4220123ED
:103960000296FEF74DF9B0FA80F0400904B0BDE8C8
:10397000F0870000032101804FF00331C0F80210EE
:10398000704700002DE9F04F8DB0054690F83200E9
:103990009B46144660288A4608D0BBF1000F4FF0C2
:1039A000000018BFCBF800004FF0000BA98C0822D4
:1039B000A86A4900BBF1000F08BF06220BAB41F219
:1039C0008837CDE9003289B2F72201230297FDF74B
:1039D000FBFE804630B1B8FA88F040090DB0BDE872
:1039E000F08F00BF9DF830009DF82F1000019DF86A
:1039F000312040EA013040EA12112A88B5F904600A
:103A0000C2EB10104043C908B5F90230000BA1EB1E
:103A1000420170435943801300EBE12EB5F90A705F
:103A2000AEF5FA3383FB03190A94A1FB0726FC17B2
:103A300001FB0466B5F9080009FB0766120A80FB62
:103A4000030442EA0662EF8812EB0032A2FB072C65
:103A50009DF82C2008929DF82D2009924FEA0432FF
:103A600042EA10509DF82E2040EB262000F5004041
:103A700007920EEB8E0200FB07C680321012721006
:103A800042EAE677002FCAF8000077D0B5F9107047
:103A90000DF1100AA1FB07408AE811400020CFF683
:103AA000F070089C00F57F206043079CB5F90EC0BC
:103AB0004FEA141A049C83FB0C3E4FEAE77C01FB9F
:103AC0000C41099C09FB07114AEA0414001B059CE0
:103AD00000F580104708D4EBC07067EB010A4FEA8D
:103AE0004E41B0EB4340B5F90C7041EAD33140F69A
:103AF000354C6AEB0101A0FB0C04A1EBC70101FBF3
:103B00000C41B5F91290F317FCF70CFB420B42EA9B
:103B1000C142A2FB02374C13B5F9166002FB047ECA
:103B2000A3FB06C702FB04EEF41703FB0473B5F90D
:103B300014700EFB0633A0FB0742FE1700FB0622A3
:103B40004FEA5C6601FB07224FEA636E46EAC31345
:103B5000E70C47EA4237C01841EB0E01C01941EBB0
:103B6000D241000ADDF818E040EA016000EB0910DC
:103B70000A99BBF1000F086007D12CE700200A99D1
:103B8000BBF1000F08603FF426AF9DF833009DF8AD
:103B90003210800340EA8150E98B0023CFF6F073A6
:103BA000B5F9202001FB0300AEF5963101FB1200B0
:103BB00095F922202B7F4A4359434FF40043921238
:103BC00003EBE12151434FF40012B5F91A3002EB37
:103BD000A121594300F5804001F50051C01389131C
:103BE0004843C11349432A7EC9095143A0EB111030
:103BF00020EAE070B0F1C85F28BF4FF0C850000B5A
:103C0000CBF80000B8FA88F040090DB0BDE8F08F9D
:103C1000F0B583B01C4616460F466B4602A901AAB2
:103C2000002C08BF2346FFF7ADFE0546D0B1029831
:103C3000FCF719FB0021C4F2C821FCF7D6FA019960
:103C400038600846FCF718FB4FF06E51FCF79BFA02
:103C500030603CB10098FCF70FFB4FF06A51FCF765
:103C600092FA2060284603B0F0BD000080B582B013
:103C7000019040F25820C2F2000001A901224FF643
:103C8000FF73FEF7E5FE019802B080BDA0B0FEF71D
:103C900013F900240120CDE91B44CDE91944169005
:103CA0001A904FF4E0104FF4803102251F9016A8AF
:103CB000CDE91714CDE91D51FEF794FA20B1EFF3C9
:103CC000108072B6FEE700BF0F20CDE911054FF45A
:103CD0008060CDE9140411A802211394FEF77AF94B
:103CE00020B1EFF3108072B6FEE700BFFFF7A6FB2E
:103CF000FFF7FAFBFFF71AFCFFF776FCFFF738FC3B
:103D000040F22406C2F2000606F13C042046FFF70A
:103D100031FE7621B18640F26811C2F2000106F14F
:103D20001000B163214606901094FFF7D1FC40F2D9
:103D30006805C2F2000558BB85A000F11009416872
:103D4000D0E902B799E81003B0F81CA00F9100BFAA
:103D50007F4840F2240628600F98C2F20006C5E9A9
:103D6000010B1D2026F8100B4FF4FA60C5E903740F
:103D7000C5E90589A5F81CA0FCF790FD109930460F
:103D800040F22406C2F20006FFF7A2FC0028DFD0B2
:103D900096F8421076A078A20591602908BF0246E5
:103DA00077A1284600F0CEF93080FFF771FC79A0AA
:103DB0004168371D1091816806F1080A0A91D0E91F
:103DC00003B106F10C080F914169CDF824B00E91B2
:103DD00081690491C1690391016A808C0D91CDE9DB
:103DE0000B7040E00A2028800120A9F80000A346BB
:103DF000D9E90164FFF71CFCFCF743FA44F6FE2501
:103E0000C0F600058146284600F01EFE3046FCF74D
:103E100051FA024644F6B320C0F600000B4600F00B
:103E200081F900212046C4F27A41FCF7DEF9FCF763
:103E300041FA024644F6D020C0F600000B4600F0DE
:103E400071F944F69620C0F60000494600F06AF980
:103E5000284600F0F9FD4FF47A70FCF71FFD40F2A0
:103E60006805C2F200050698394652464346FFF7F8
:103E7000CFFE40F22409DDF828C01099DDE90E7369
:103E8000DDE90324DDE90CE60028C2F2000941481F
:103E900029D100BF85E80310C5E907264E46252035
:103EA00026F8100B4FF4FA60C5E903B3C5E90574B1
:103EB000A5F824E0C346D0461746FCF7EFFCD846E9
:103EC0000B993046DDF824B052464346FFF7A0FE7A
:103ED000DDE90CE63A46DDE90E73DDF828C01099FD
:103EE00000282C48D6D0D9E901600B9F5C46FCF72E
:103EF000E1F9CDE907103046FCF7DCF9DDE90732DE
:103F00000E46009028462DA1019600F01BF9059958
:103F1000A9F8000060297FF465AFD9F80C00FCF720
:103F2000C9F90B4644F6EC2102462846C0F60001CA
:103F300000F008F9A9F8000082B240F25820C2F25D
:103F4000000029464FF47A73FEF782FD4FE700BF69
:103F5000424D5032383020696E697469616C697AFB
:103F60006174696F6E206661696C65640A000000A7
:103F7000424D453238300000424D5032383000005A
:103F8000424D503238303A20666F756E642025738A
:103F90000A00000054656D70657261747572652F5A
:103FA00070726573737572652072656164696E679E
:103FB000206661696C6564210A00000050726573B7
:103FC000737572653A20252E32662050612C20547C
:103FD000656D70657261747572653A20252E326662
:103FE000204300002DE9F04786B0828C044600F1A2
:103FF0001801806A5200012341F28835CDE900138F
:1040000091B2A12201230295FDF7DEFB002857D1D2
:10401000A18CA06A490002220DF11203CDE9003201
:1040200089B2E122012302950125FDF7CDFB00288D
:1040300046D1BDF81200A28C608304F11C01A06A75
:10404000520041F28836CDE9001591B2E3220123F6
:104050000296FDF7B9FB98BBA18CA06A490005AA9E
:104060000225009289B2E422012302960195FDF710
:10407000ABFB28BBA18CA06A49000DF116029DF88C
:1040800014809DF8156041F288378DE8A40089B24C
:10409000E52201230125FDF797FB88B9A28C04F1E5
:1040A0002201A06A52009DF816909DF817A0CDE954
:1040B000001591B2E72201230297FDF785FB18B1A5
:1040C000002006B0BDE8F08749EA0A2006F00F019B
:1040D00041EA08110009E1832084012006B0BDE80F
:1040E000F087000070B584B01E460B4640000221E8
:1040F0000DF10E0541F28834CDE9005181B2184628
:1041000001230294FDF760FB20B1B0FA80F0400972
:1041100004B070BDBDF80E103180B0FA80F04009D7
:1041200004B070BD0FB4054B10B503A9044A029842
:1041300000F0EEF810BC5DF814FB00006D3C0008C8
:10414000000000200FB4084B10B504A902AA039880
:1041500000F0DEF8044602A9002000F070FC2046C2
:1041600010BC5DF814FB00003F4A000802E008C8DC
:10417000121F08C1002AFAD170477047002001E0E1
:1041800001C1121F002AFBD1704700002DE9FF5F1B
:1041900082B00021DDE90430020DDDF840B00343B8
:1041A00018D044F61050A2F2FF3242431514119871
:1041B00001281FD0A5EB0B00401C5FEA000A4FF05E
:1041C00000064E4FDFF83891B046504615D5CAF17B
:1041D000000413E0119801244AA3012801D16FEAD9
:1041E0000B010298119AC0E90031C0E9024206B001
:1041F000BDE8F09FCBF10000DFE704460021404A14
:10420000491842EB0450CDE9001012E0E00707D056
:1042100032463B4640464946FCF784F9804689468B
:1042200032463B4610461946FCF77CF906460F46D7
:104230006410002CEAD1DDE90401DDE90023BAF1C4
:10424000000F06DAFCF76EF942464B46FCF76AF9B6
:1042500005E0FCF7D9F942464B46FCF7D5F9044690
:104260000E460022284BFCF757FA03D84FF0FF30D8
:10427000014607E00022254B20463146FCF7ABF80B
:10428000FCF731FA102409E0002C0ADB0A22002393
:10429000FCF739F8039B30321A55641E50EA0102CC
:1042A000F2D1641C039AC4F111031444119A012A37
:1042B00003D0012208430DD10AE0084304D00020B6
:1042C0004FF0110B119072E7A3EB0B056D1E0DE083
:1042D0005B4504DD4FF0000205F1010504E003DA5F
:1042E0004FF00002A5F10105002AECD002981199C7
:1042F000C0E90231C0E9004579E700000000144040
:104300000000F03F300000000000F0430000E03FFC
:104310002DE9FF4F95B09B468946064600250FE2E2
:10432000252877D100242746F84A0121059400E08A
:10433000044316F8013F203B01FA03F01042F7D185
:1043400030782A2811D06FF02F033078A0F1300296
:10435000092A16D8059A44F0020402EB820203EB04
:1043600042021044761C0590EFE759F8042B0592A1
:10437000002A03DA504244F40054059044F0020449
:10438000761C30782E2816D116F8010F44F004045C
:104390002A280DD06FF02F023078A0F13003092BBE
:1043A00009D807EB870302EB4303C718761CF3E732
:1043B00059F8047B761C30786C280FD006DC4C282A
:1043C00017D068280DD06A2814D104E0742810D0C2
:1043D0007A280FD10DE044F400140AE044F480146C
:1043E00001E044F440147278824202D104F5801452
:1043F000761C761C307866280BD013DC582877D0D2
:1044000009DC002875D04528F6D04628F4D0472886
:104410001AD19DE118E0632835D0642879D0652849
:1044200012D195E1702873D008DC6728F1D0692893
:104430006FD06E280DD06F2806D1B5E073282CD030
:10444000752875D0782874D05A46179990476D1CF6
:1044500075E1C4F30250022809D003280DD0D9F821
:10446000001004280DD00D6009F1040967E1D9F8A6
:104470000010EA17C1E90052F6E7D9F800100D80E4
:10448000F2E70D70F0E719F8041B8DF8001000201A
:104490008DF80100EA46012003E059F804AB4FF023
:1044A000FF3061074FF0000102D40DE008F1010177
:1044B0008846B9420FDA8045F8DB1AF8081000295F
:1044C000F4D108E008F1010188468142FADB1AF8CC
:1044D00008100029F6D105985B46A0EB0807214695
:1044E0003846179A00F094FA284400EB080507E0D4
:1044F0004DE029E10DE01AF8010B5A461799904753
:10450000B8F10108F7D25B4621463846179A13E105
:1045100042E00A220092C4F302524FF0000A022A3B
:1045200008D059F804CB032A4FEAEC710AD00DE009
:1045300029E02AE009F1070121F00702F2E802C1AF
:10454000914609E00FFA8CFC4FEAEC71042A03D182
:104550004FFA8CFC4FEAEC71002907DA0A46002179
:10456000DCF1000C61EB02012D2202E0220504D5F2
:104570002B228DF80420012203E0E20701D0202243
:10458000F7E7904659E00A2102E010220DE01021E1
:104590004FF0000A00910BE010224FF0000A44F0A7
:1045A00004040827009203E008224FF0000A00925A
:1045B000C4F30252022A05D059F804CB0021032A81
:1045C00008D009E009F1070121F00702F2E802C171
:1045D000914605E01FFA8CFC042A01D10CF0FF0C77
:1045E0004FF00008220728D5702806D0009B83F0E2
:1045F000100353EA0A0305D00EE040228DF8042090
:10460000012208E05CEA010206D030228DF8042085
:104610008DF8050002229046009B83F0080353EAC0
:104620000A030AD15CEA010201D1620705D53022F2
:104630008DF804204FF001087F1E582804D034A0C4
:1046400003900EA802900DE036A0F9E753466046AD
:10465000009AFBF758FE84460398825C0298401E3D
:10466000029002705CEA0100F0D1029806A9081AD3
:1046700000F1200A600702D524F4803400E001270D
:10468000574502DDA7EB0A0000E0002000EB0A011D
:10469000009005984144401A0590E00306D45B461B
:1046A0002146179A059800F0B3F90544002706E063
:1046B00001A85A46C05D179990476D1C7F1C47455D
:1046C000F6DBE0030CD55B462146179A059800F00F
:1046D0009FF9054404E030205A46179990476D1C15
:1046E0000099481E00900029F5DC08E00298029924
:1046F0005A460078491C0291179990476D1CBAF1EF
:104700000001AAF1010AF1DC65E1000009280100BD
:104710003031323334353637383961626364656637
:1047200000000000303132333435363738394142F9
:10473000434445460000000000F058F90544761C4B
:10474000307800287FF4ECAD19B02846BDE8F08F32
:10475000620700D4062709F1070222F0070CFCE8E3
:104760000223E14603F000485FEA080C02D00FF292
:10477000702C0DE05FEA045C02D50FF2682C07E0B4
:104780005FEAC47C02D00FF2602C01E0AFF2700C43
:104790004FF0FF3823F00043CDF850C065280CD00F
:1047A00006DC452809D046281DD047283DD13DE0EC
:1047B000662818D067287ED138E00021112F01DB50
:1047C000112000E0781CCDE9000106A90EA8FFF732
:1047D000DDFCDDE90F010E9A03910021009207F143
:1047E000010A04914DE04FF000400097CDE901101F
:1047F00006A90EA8FFF7CAFCDDE90F0203920E9B83
:1048000011990022DDF80CA00093049211B9791CD3
:1048100000EB010AB7EB0A0004D4C0F1FF3007F146
:10482000010A0490AAEB0700019044E0012F00DA8E
:1048300001270021112F01DD112000E03846CDE9CC
:10484000000106A90EA8FFF7A1FCDDE90F010E9AF1
:104850000391002104910092BA4621070CD40399D8
:10486000514500DA8A46BAF1010F05DD009AAAF136
:104870000101515C302908D0B84202DA10F1040F6E
:1048800006DA0121CDE9011015E0AAF10101E9E7FD
:10489000002805DC049901440491AAEB000102E020
:1048A000411C514500DD8A460499401A401C019084
:1048B0004FF000400290200704D40198504501DBDE
:1048C000CDF8048000208DF84F0002980DF14F07BD
:1048D000B0F1004F25D02B200E9002984FF0020827
:1048E00000280CDA404202902D200E9007E00A21A9
:1048F0000298FBF7F2FC3031029007F8011DB8F185
:104900000001A8F10108F2DC02980028EFD1791E1D
:104910000E980870307800F0200040F0450007F84D
:10492000020D12A8C01B00F107081498007800B10E
:10493000012000EB0A01019801EBE0710598414468
:10494000401A401E0590E00306D45B462146179AA4
:10495000059800F05DF805441498007818B15A469F
:10496000179990476D1CE00324D55B462146179AA2
:10497000059800F04DF805441CE00498002807DB7A
:10498000DDE90301884203DD0098405C179901E0EE
:10499000179930205A469047049805F10105401CAC
:1049A00004900198401E019004D12E205A46179978
:1049B00090476D1CBAF10001AAF1010ADDDC05E0A7
:1049C00017F8010B5A46179990476D1CB8F1000172
:1049D000A8F10108F4DC5B462146179A0598ABE67E
:1049E0002D0000002B000000200000002DE9F04108
:1049F000044600251E461746880404D405E03946BF
:104A00002020B0476D1C641EF9D52846BDE8F08112
:104A10002DE9F041044600251E469046C80301D505
:104A2000302700E02027880404D505E041463846B9
:104A3000B0476D1C641EF9D52846BDE8F0810A68B0
:104A4000531C0B601070704710B5044601E0FFF76F
:104A50000DF914F8010B04490028F8D1BDE8104005
:104A60000A20FFF703B90000000000200102000047
:104A7000000000000000010203040607080900000E
:104A800000000102030402030405060708090A0BDB
:104A90000C0D0E0F101043757272656E7420466F08
:104AA000726D616C6465687964653A2025642025BF
:104AB000250A0043757272656E742054656D7065C9
:104AC0007261747572653A20252E326620430A00A1
:104AD00043757272656E742050726573737572657A
:104AE0003A20252E3366206B50610A002C20487531
:104AF0006D69646974793A20252E32660A002A2D80
:104B00002D2D2D2D2A2D2D2D2D2D2A2D2D2D2D2DDB
:104B10002A2D2D2D2D2D2A2D2D2D2D2D2A00000055
:104B2000404B000800000020100000006C4100080D
:104B3000504B000810000020900600007C41000847
:104B40000000000001000000100000000024F4003C
:04000005080000ED02
:00000001FF
